:020000040000FA
:1000000000000120010100005D0100005F0100000F
:1000100061010000630100006501000000000000B4
:100020000000000000000000000000000B0C0000B9
:100030006901000000000000510C00007B0C000072
:100040006F0100006F0100006F0100006F010000F0
:100050006F0100006F0100006F0100006F010000E0
:100060006F0100006F0100006F0100006F010000D0
:100070006F0100006F0100006F0100006F010000C0
:100080006F0100006F0100006F0100006F010000B0
:100090006F0100006F0100006F0100006F010000A0
:1000A0006F0100006F0100006F0100006F01000090
:1000B0006F0100006F010000000000000000000060
:1000C0006F0100006F0100006F0100006F01000070
:1000D0006F0100006F0100006F0100006F01000060
:1000E0006F0100006F0100006F01000000000000C0
:1000F0006F01000000000000000000006F01000020
:100100004FF000000C4A0D4B9A42BCBF42F8040B62
:10011000FAE70B490B4A0C4B9B1A03DD043BC8580A
:10012000D050FBDC09480A4900F002FA0948804730
:1001300000F01EF808480047140100202C19002088
:10014000F42D0000000100201401002030190020CF
:1001500050FE00205902000081040000FEE7FEE787
:10016000FEE7FEE7FEE7FEE7FEE7FEE7FEE7FEE767
:100170004FF080430122C3F878257047084BD3F82D
:10018000F020D20700D501BEBFF34F8FD968054AD2
:1001900001F4E0610A43DA60BFF34F8F00BFFDE76F
:1001A00000ED00E00400FA05024BD3F8F00000F087
:1001B0000100704700ED00E04FF0804301225A60DB
:1001C000D3F818140B480140B1F1011F10D00021E1
:1001D000DA60C3F80411C3F818259A60D3F8042133
:1001E000002AFBD0D3F818240240B2F1011FF5D148
:1001F000704700BF030001004FF0704393F8E02FF9
:10020000062A0CD1D3F8E42F120708D1D3F8E80F4F
:1002100000F0F000A0F13003584258417047002030
:1002200070474FF0704393F8E02F062A10D1D3F8AF
:10023000E42F12070CD1D3F8E80F00F0F003302BB5
:1002400008D000F0E000A0F1400358425841704748
:10025000002070470120704708B5FFF7CDFF10B1AF
:100260006B4B6C4A5A67FFF7DCFF48B14FF0805385
:100270004FF08042D3F84432C3F34233C2F83C35E6
:10028000FFF7BAFF30B1644AD2F8FC3023F0807334
:10029000C2F8FC30FFF7C5FF40B14FF080430022A9
:1002A000C3F80C21C3F81021C3F83825FFF7A4FFC9
:1002B00020B14FF080430322C3F8A025FFF79CFF35
:1002C00060B1564B0522C3F810260122C3F88826D8
:1002D0000022C3F818263F22C3F814264FF07043BB
:1002E00093F8E02F062A50D1D3F8E42F12074CD10F
:1002F000D3F8E83F03F0F003502B46D14FF0805283
:10030000474BD2F80414C3F82015D2F80814C3F8E8
:100310002415D2F80C14C3F82815D2F81014C3F819
:100320002C15D2F81414C3F83015D2F81814C3F8E9
:100330003415D2F81C14C3F84015D2F82014C3F8B1
:100340004415D2F82414C3F84815D2F82814C3F879
:100350004C15D2F82C14C3F85015D2F83014C3F849
:100360005415D2F83414C3F86015D2F83814C3F811
:100370006415D2F83C14C3F86815D2F84014C3F8D9
:100380006C15D2F84424C3F87025FFF74AFF48B132
:100390004FF080534FF08042D3F8583203F04F03B0
:1003A000C2F8E43E4FF01023D3F80C32DB0728D517
:1003B0001C4B0122C3F80425D3F80024002AFBD0EB
:1003C0004FF01022D2F80C3223F00103C2F80C32A5
:1003D000144BD3F80024002AFBD00022C3F80425D4
:1003E000D3F80024002AFBD0BFF34F8F0A490E4BED
:1003F000CA6802F4E0621343CB60BFF34F8F00BFC3
:10040000FDE70A4B0A4A1A60BDE8084000F078B8D8
:1004100000C007400DF0ADBA00ED00E00050004014
:1004200000C0004000E001400400FA050001002087
:100430000090D0037047000070B50D4D0D4C641B4B
:10044000A4100026A64209D10B4D0C4CFFF7F2FF79
:10045000641BA4100026A64205D170BD55F8043BCC
:1004600098470136EEE755F8043B98470136F2E726
:10047000042C0000042C0000042C0000042C0000BC
:1004800008B5FFF7D9FF0021084600F003F800F097
:100490004BF800001FB500F02BF847F2305000F089
:1004A00025F948B1FFF780FE00B101BE00231A46CE
:1004B0001946184600F010FB00F002FD01A801F0FB
:1004C00007F8064B1B68834202D00028EAD1FEE7FA
:1004D000019B1889039B184400F0EDF89C01002053
:1004E0000028024818BF0020704700BF042C0000FD
:1004F00008B5FFF761FEBDE8084000F033B9000021
:1005000008B50649064B8B4204D01846D82200F0A5
:10051000F7FB0346034A936008BD00BF00000000DC
:100520000000002000ED00E008B5FFF727FE000006
:10053000034B1860034B1960034B1860704700BFF2
:100540001C0100201801002014010020064B074A5E
:10055000D2F80014012904D0013BF9D14FF0FF304B
:1005600070470020704700BFA086010000E00140F6
:1005700070B50D46FFF7EAFFD0B9EFF3108672B6FB
:100580000D4C0223C4F80435FFF7E0FF68B9C4F846
:100590000855FFF7DBFF003818BF01204042002359
:1005A000C4F8043506B962B670BD4FF0FF30F6E707
:1005B0004FF0FF30F8E700BF00E001400020704737
:1005C0002DE9F3470C4616461D46FFF7BFFF0028EE
:1005D00051D1EFF3108872B6284B012214F0030AB0
:1005E000C3F8042526D0FFF7B1FF60B14FF0FF300C
:1005F000224B0022C3F80425B8F1000F00D162B6E7
:1006000002B0BDE8F08724F00309CAF10407D9F865
:1006100000300193AF4228BF2F4601AB314603EBB8
:100620000A003A4600F06CFB019BC9F800303C44DC
:10063000ED1B3E44032D14D865B1236801932A466F
:10064000314601A800F05CFBFFF780FF0028CDD108
:10065000019B2360FFF77AFF003818BF012040425A
:10066000C6E7FFF773FF0028C0D156F8043B44F8F3
:10067000043B043DDEE74FF0FF30C1E700E00140FE
:1006800008B510461A4600F03BFB002008BD7F2944
:1006900008B509DDFFF788FD00B101BE00231A4649
:1006A0001946184600F018FA090311604FF48052F9
:1006B0001A60002008BDD0E9003283F30888104793
:1006C00008B5094BD3F80423D2070CD50022C3F890
:1006D0000021FFF769FD00B101BE00231A4619464B
:1006E000184600F0F9F908BD00000140184A08B5A5
:1006F0000123C2F80C35174B984209D9FFF754FD76
:1007000000B101BE00231A461946184600F0E4F96C
:10071000602343437D21B3FBF1F303EB40100E4B09
:10072000C2F804059B680D49C3F880100C4BE0210A
:1007300083F810134FF48031C3F880111960D2F898
:10074000083543F00103C2F80835002008BD00BF9A
:1007500000000140AAAAAA0200ED00E0C1060000C4
:1007600000E100E007B50021084600F0F7F848B1C5
:10077000FFF71AFD00B101BE00231A4619461846BC
:1007800000F0AAF9094800F0C1F903460028EFD1AA
:10079000074A0192074A009207490848012200F0DF
:1007A000C9F90028E4D103B05DF804FB40420F0012
:1007B0003E2C000025260000382C000020010020DF
:1007C000002808DB4309044900F01F0001224033E0
:1007D000824041F82320704700E100E070B50369D2
:1007E000EFF3108672B6D3F80445D3F804214568B8
:1007F0005AB105F1807500224560D3F80445C3F86D
:10080000042190F90100FFF7DBFF44EA050006B977
:1008100062B670BD30B484780369BCB34FF48022F3
:10082000C3F80823D3F80445D3F8045142681DB136
:10083000D3F8044502F1807222438A1A002A4FF04D
:10084000010506DCC3F8085330BC90F90100FFF73E
:10085000B7BF022A07DCC3F80453D3F804359C421F
:10086000F2D130BC7047B2F1807F34BF21F07F41BC
:1008700004F500044FF48022C3F8085334BFC3F8D2
:100880004815C3F84845C3F80423EAE74FF40022AB
:10089000C3F80823C3F84C15C3F84C41C3F804232C
:1008A00001229A64D3F848355B1A002BD9DBCBE7D9
:1008B0002DE9F047284C2669D6F84C3113B10023B6
:1008C000C6F84C31A3680133A360D6F808331B0384
:1008D0003CD5EFF3108772B6DFF87C904FF001083B
:1008E0004FF0000A656945B1A3789BB14846FFF710
:1008F00075FFEB68C01A002812DA6369F3B9A278B1
:1009000023692AB34FF48022C3F808230122C3F8D5
:10091000082317E02369C3F84880D3F84805E8E7BF
:10092000D5E9043243B15A616A691360D5E90130EF
:10093000C5F814A09847D5E7A261F5E7D96806483D
:10094000FFF768FF07B962B6D6F84C31BDE8F0870B
:100950004FF40022DBE700BF5C01002005281DDC0E
:100960000F4B53F82030CBB11B78BBB9B0B90D4B4E
:100970000D4A1A6108225A700C4B4FF48072C3F86A
:100980008020BFF34F8FBFF36F8FE02283F80823DF
:1009900003F54063064A9B681A6670471620704745
:1009A000442C00005C0100200080004000E100E0D9
:1009B000B10800000528F8B556DC2C4B53F8205040
:1009C000002D51D02C78002C4ED1294B99424BD878
:1009D000B3FBF1F1B1F5007F46D82B69002B43D072
:1009E000012916D002293BD0022301220A2B01D172
:1009F0001C460EE002FA03F0884203F101042DD3F5
:100A0000DCB2013B9A408A1A401A824201D2013C70
:100A1000E4B2174B01262341EB602E70EFF31087F1
:100A200072B600F029F82B6900225E60DE60C3F820
:100A300004250322C3F80825C3F810451E6095F964
:100A400001206B78002A06DB5A0903F01F039E4041
:100A5000084B43F822602FB10020F8BD2346C5E7BC
:100A60000124D6E762B6F7E71620F6E7442C00002B
:100A70000024F40000E100E038B5EFF3108572B611
:100A8000144C2378FF2B09D1FFF78EFB00B101BE78
:100A900000231A461946184600F01EF8BBB94FF05D
:100AA0008042D2F80C1401F00111B1F1011F05D1FF
:100AB00001200133237005B962B638BD0121C2F8A7
:100AC00000311160D2F800110029FBD0F0E70020BE
:100AD000EFE700BF7801002008B500F074F8044B80
:100AE0004FF000425A60BFF36F8FFFF747FB00BF24
:100AF00000ED00E008B5044B5A685A68DA6A9A6A51
:100B00009A6B5B6BFFF73AFB00ED00E001460020BB
:100B1000FFF750BF10B5D0E9043104469847E37E93
:100B200018B11B0700D4002010BD43F00103E37689
:100B3000F9E700002DE9F84343769946089B0361E5
:100B40000025099B1C4EC161027690464583436196
:100B500010222946044600F0E0F83768DFB1BC42B5
:100B600011D03846037E98451FD302D1437E4B45B2
:100B70001BD8036A0546A3B92B6A236213B904F193
:100B8000200373602C620D4B186890B12046BDE8BD
:100B9000F843FFF7BFBF234643F8207F73603460FC
:100BA000F1E79C42EFD01846DCE7002DE4D1276244
:100BB000F5E7BDE8F88300BF7C0100208801002034
:100BC000012000F00DB8EFF3108072B600F00100C4
:100BD00070470000014B1868704700BF900100206B
:100BE000024A136803441360704700BF900100205D
:100BF00080F309882B480078023080F31488BFF313
:100C00006F8F704780E8F00F7047EFF309808169BC
:100C100011F8021C51B990E80F1010B5E047BDE87B
:100C20001040EFF3098C8CE80700704710B51E4A9E
:100C30001268914209D81D4C54F8214090E80F10D9
:100C4000A047EFF3098C8CE80F00BDE81040704717
:100C5000174B1A68174B1968914208BF7047EFF39A
:100C6000098C2CE9F00FC1F800C01A60D2F800C05E
:100C7000BCE8F00F8CF30988704710B5FFF7A0FFB0
:100C8000BDE8104070471EF0040F0CBFEFF308835F
:100C9000EFF309832DE9F84F6846FFF72BFFBDE816
:100CA000F84F70478401002000000000FCFFFFFFA8
:100CB000040100208C01002070B44FF0000522F0E8
:100CC000030605E043594C59A34204D105F104053C
:100CD000B542F7D10DE01BBA24BA1B1B8CBF012310
:100CE0004FF0FF3309E0435D4C5D1B1B05D105F15F
:100CF00001059542F7D14FF00003184670BC7047CC
:100D000001E08B588350043AFBD502F1040201E064
:100D10008B5C8354013AFBD5704730B50546C9B2A8
:100D200041EA012141EA0141AB1803242340D31ACF
:100D30000BD401E0013AA9549A42FBD100E0A9503A
:100D4000043AFCD5043200E0A954013AFCD530BD88
:100D500003461A46013311780029FAD1101A704758
:100D60000A4A126830B503462AB1094909680020C9
:100D70000C24814202DC4FF0FF3030BD04FB00F553
:100D8000555D9D42F9D00130F3E700BF9801002086
:100D90009401002038B50A4B1C680D464CB1FFF792
:100DA000DFFF431C08D00C2303FB00442C60002011
:100DB00038BD6FF00600FBE76FF00300F8E700BFF7
:100DC000980100202DE9F04F5FFA80F985B00F46B9
:100DD000484601A91446FFF7DDFF054658B9DDF87E
:100DE00004A038609AF80100FFF77AFBA84606468F
:100DF000F368434503DC284605B0BDE8F08F33684F
:100E000002AAD3F80CB0414603AB3046D847DAF813
:100E10000430029A934211D8DAF808100B449A422F
:100E20000CD244B184F800909AF801306370039BAF
:100E30006260A3600C343B6801333B6008F1010839
:100E4000D6E730B485688D421C4608D30C44A542D1
:100E500005D344684078214430BC01F048BC4FF0D1
:100E6000FF3030BC704730B485688D421C4608D3D3
:100E70000C44A54205D344684078214430BC01F0BD
:100E800059BC4FF0FF3030BC704710B484688C42BE
:100E9000134608D30B449C4205D3436810BC4078EA
:100EA000194401F077BC4FF0FF3010BC7047407818
:100EB00001F00DBC08B5407801F011FC08BD000040
:100EC0002DE9F34101F0F0FB58B1FFF76DF900B1E6
:100ED00001BE0023254A0093146819461A46184695
:100EE000A047234B234D244E1D60062333602C4620
:100EF00000274FF00C082078FFF732FF013028D18F
:100F00003368092B2DDDFFF74FF900B101BE002337
:100F10001A4619461846FFF7DFFD60785178884277
:100F20000AD1D4F804E0A06851687044884203D91B
:100F3000906801448E450CD30CF1010C0C326345D2
:100F4000EBDC94E8070008FB035C8CE80700013346
:100F500033600137062F04F10C04CCD102B0BDE898
:100F6000F0812A464FF0000CE9E700BF0C01002099
:100F700098010020902C00009401002008B5FFF794
:100F8000ABFDF8B513460F4616460021024605464E
:100F900000F081FB044650B9334605F12C020121D3
:100FA000284600F078FB10B1002F18BF04462046F9
:100FB000F8BDF7B5044600200D46174601F0BBF812
:100FC0006946C0B2FFF7E6FE18B10125284603B016
:100FD000F0BD2C2303FB05440098E36826891E44DA
:100FE00004230DEB03023146FFF72BFF05460028D3
:100FF000EBD1BDF80420648946F608139A421AD151
:10100000BDF806309C4201D00325DFE70423009899
:101010000DEB0302A119FFF714FF0028D5D1BDF88D
:10102000042046F607139A42EED1BDF8061021447B
:1010300031443960CAE7002CF1D0E5E730B52A4BDE
:1010400089B00121044600201D6801F074F806A94A
:10105000C0B2FFF79FFE002842D1012101F06BF8DA
:1010600007A9C0B2FFF796FE38B3E16B069B11F0FB
:10107000100130D14FF4807201921C4A0092CDE9E8
:101080000311029104F12C02084600F031FF0546DD
:10109000174BE26A06989A420AD1A26BA38E9B185C
:1010A00006D282689A4203D9124B1B68AB4217D012
:1010B00082680021FFF7E9FE11E00798FFF7FAFECA
:1010C00004F12B03C0B204F12F0213F8011F814277
:1010D000CBD19A42F9D10699204600F001FA0125B8
:1010E000284609B030BD00BF10010020A00100203B
:1010F0003DB8F3969C01002073B5426A04468025F2
:1011000001A901200195FFF75DFE019BA36218B1C3
:101110000125284602B070BD226D019501A902206B
:10112000FFF750FE019B63650028F1D1E26D019548
:1011300001A90320FFF746FE019B23660546002810
:10114000E6D1206AFFF7B3FE0646A06DFFF7AFFEBB
:1011500086422CBFA666A066DBE70123036003F18D
:10116000012343600023C0E9023370474379012B18
:1011700007D10368012B04D10079431E584258411E
:10118000704700207047000073B50D4604460021EB
:101190002846CDE90011FFF7E9FF58B31A4E23683E
:1011A000B3420ED101AA2046FFF703FF48B1FEF774
:1011B000FBFF00B101BE00231A4619461846FFF78F
:1011C0008BFCE36AB34206D16A4601212046FFF751
:1011D000F0FE0028EBD1DDE90032934288BF019395
:1011E000019BAB602046019A294600F061FB00207C
:1011F00002B070BD05F1080100F0BAFD0028D6D19B
:10120000AB680193EEE700BF3DB8F3967FB58B79ED
:10121000002B06460D460CBF0120032001A9FFF755
:10122000B9FD18BB019800F0EFFCB16E04462846EA
:1012300000F0A1FA04440198FFF739FE0646019830
:10124000FFF738FE0722C1B20DF10900FFF765FD77
:101250002B798DF808300198334602AA2146FFF712
:1012600002FE003818BF012004B070BD0120FBE76A
:10127000FFF70BBE2DE9F04B099FDFF84CB00E468F
:10128000904699460024BC4201D300200EE03D1B4D
:10129000B5F5806F28BF4FF480650B4A2B4604EBF1
:1012A00009013046FFF7CDFD10B10120BDE8F08BFC
:1012B00008992B465A4661184046FFF7D4FD00288E
:1012C000F3D12C44DFE700BFA0140020F0B56C225E
:1012D000044685B00F460021FFF71FFD774B636280
:1012E000774B23650021774BE365084600F023FF29
:1012F00004F12001C0B2FFF74DFD78B9012100F0E3
:101300001AFF04F14C01C0B2FFF744FD30B904F1FB
:1013100058010320FFF73EFD054648B1FEF744FFA4
:1013200000B101BE00231A4619461846FFF7D4FB48
:101330002046FFF7E1FE024670B10120042884F840
:1013400064008DF8070071D8012877D800F08B80F1
:10135000FF2384F8643086E001462046FFF711FE43
:101360000028EAD1204600F011FA0028E5D06846AE
:10137000FFF7F3FE6946204600F023F90028DCD190
:101380006846FFF7F3FE70BB69462046FFF7FCFE98
:101390000028C3D19DF8073084F86430033B012B4B
:1013A00006D8002000F05FF910B1FF2384F8643004
:1013B0009DF80730023B022B07D8002000F045F9CA
:1013C00018B1FF2384F86430A8E794F86430FF2B49
:1013D000A4D00028A2D101466A462046FFF7D1FDDD
:1013E0000028AAD09AE79DF80730012B13D1284690
:1013F00000F03EFD831E022B06460AD82046FFF76A
:101400001DFE314B1B68984203D0012814BF0526EE
:101410000126F0B292E72046FFF710FE2A4B1B6828
:1014200098420CBF9DF80700052087E705288FD15B
:10143000002000F018F90546A8B189E76946204662
:10144000FFF7A2FE00287FF469AF94F86430DA1E3B
:10145000012A2DD800F007F90028B2D1002000F0B1
:10146000F4F80028ADD194F86430FF2B3FF456AF68
:10147000012B06D06A4600212046FFF782FD054673
:1014800098B92268114B9A4216D110220021684661
:10149000FFF743FC236A5A783A715B68BB600A4BDA
:1014A0003C601B68002D08BF1D46284605B0F0BDF6
:1014B000023B012BD7D8D1E70325F6E7A00E002089
:1014C000A0080020A00200209C0100203DB8F39657
:1014D00008B501460148FFF7F9FE08BDA018002035
:1014E0002DE9F0470E4600210746084600F023FE8E
:1014F00001210446002000F01EFE3378A34224D0D0
:1015000083422BD101252C2303FB0575B86EAC6AF1
:1015100000F06AFB013C804600274FF00C0A6B6A22
:101520000AFB0432D2E901195B684A46C91A3046FF
:10153000FFF79EFE58B1FEF737FE00B101BE002353
:101540001A4619461846FFF7C7FA0025DBE74F444D
:10155000B84504F1FF34E2D8BDE8F0870120FBE78D
:1015600037B50C4602206946154600F0F1FB0246ED
:1015700048B1FEF719FE00B101BE00231A46194614
:101580001846FFF7A9FAE979012904D0204600F0AE
:1015900045FC0028EDD19DF80330012B04D12046F5
:1015A00000F030FC0028E4D1A968204600F053FC8C
:1015B0000028DED1204600F00BFC0028D9D103B072
:1015C00030BD37B50C46054600F036F90128E0601D
:1015D0000DD0022813D0002835D0FEF7E5FD00B16C
:1015E00001BE00231A4619461846FFF775FA032074
:1015F00001A9FFF7CFFB20B1012003B030BD0120CE
:10160000F6E701982246294600F05CF80028F4D15C
:10161000019800F010FB012301460DF1030201982F
:10162000FFF70FFC0028E7D1019801220DF103011B
:1016300000F004FB10B101238DF803309DF8033056
:1016400003F00F03E3710020D7E707B5012001A9DC
:10165000FFF7A0FB28B9019800F0C8FB03B05DF8C4
:1016600004FB0120FAE71FB5012001A9FFF792FB57
:1016700018B1012005B05DF804FB019802A900F043
:10168000F1FA0028F5D19DF80B30032BF2D1019827
:1016900000F0B8FBEEE713B50020144600F04BFD58
:1016A00001A9C0B2FFF776FB014648B90198202393
:1016B0002246FFF7C6FB003818BF012002B010BD5C
:1016C0000120FBE72DE9F74F07468A46164600F052
:1016D0009BFA39468146002000F08BFAB0F1000BEE
:1016E00045DB00242546A0465C4513D1B8F1000F28
:1016F0000CD0002D18BF2C46032394FBF3F35A1C87
:1017000003EB4303E31A013332603371002003B06B
:10171000BDE8F08FDAF8681001230DF1070201FB34
:1017200004913846FFF78DFB002822DB01220DF1E2
:101730000701384600F082FA38B1B8F1000F02D044
:10174000002D08BF25460134CEE7B8F1000F0BD0BD
:10175000002DF8D0FEF728FD00B101BE00231A4687
:1017600019461846FFF7B8F94FF00108EBE70720D4
:10177000CDE70120CBE710B503685A1E0379013B82
:1017800001EB4104594304FB021010BD2DE9F04761
:10179000D0F82880B8F1800F4BD8D0F854E0BEF1D3
:1017A000800F46D8836DD3F808A000231C461D4641
:1017B00099461A461E4619464FF00C0C45450BD368
:1017C000744509D3454534D1744532D1A2EB0903A0
:1017D00058425841BDE8F087B14215D1476A0CFB29
:1017E00005770135BF683944076D0CFB0477013478
:1017F000BF683E44B142E1D151450A44894418D8FA
:1018000000231E461946D9E709D2476A0CFB057723
:10181000022BBF6839440CD001350123EAE7076D7C
:101820000CFB0477012BBF683E4402D00134022335
:10183000E0E70020CEE70000F0B585B002A9012066
:1018400000F086FA48B1FEF7AFFC00B101BE0023FC
:101850001A4619461846FFF73FF96946032000F07B
:1018600077FA04460028EED1104D06462F469DF823
:101870000810287800F0AAF990B19DF80010687857
:1018800000F0A4F960B1AB78042B03D09DF80A20D6
:101890009A4205D107EB8607FC78204605B0F0BDDB
:1018A0000136042E05F10405E1D1F6E75C2C0000B9
:1018B0002DE9F04F00230C4689B0054619461F4616
:1018C0000C26914201D3994204D2686A06FB0700B4
:1018D00080680144934202D3994240F24381286DCB
:1018E00006FB070091428068034403D39A4201D863
:1018F000994201D00137E4E74FF0000A4FF00C099C
:10190000AB6D99686B6A09FB0732D2F8088088458D
:1019100040D803F10800013F34D22268013A524511
:1019200000F2188107FB09921A445B685268A86E9E
:10193000A2EB030B00F058F9AB6A696A013B09FBA3
:10194000031349685B680BEB08025B1A9A42236831
:101950008CBFA8EB00064646012B1ED1B6EB080350
:1019600018BF0123A37103A90120FFF713FAB0B137
:10197000FEF71AFC00B101BE00231A4619461846AC
:10198000FFF7AAF809FB07F2825842449142C4D3F8
:101990009046C0E74FF00008BFE70023E2E704A944
:1019A0000220FFF7F7F90028E2D105A90320FFF78D
:1019B000F1F901460028DBD12379012B40F0C580E5
:1019C00005988268FFF754FC0028D1D12368059957
:1019D000012B1BD122462846FFF7C2FD0028C7D1A4
:1019E000A3799BB903992846FFF77AFD0028BFD158
:1019F000039922462846FFF7B3FD0028B8D1059881
:101A000000218268FFF734FC0028B1D10023009345
:101A1000DDE9041201965B462846FFF72BFC0028FF
:101A2000A6D121462846FFF7F1FB022323710028A7
:101A30009ED1049842465946FFF71AFC002897D1D8
:101A4000CDE900B6DDE903125B462846FFF712FC3C
:101A500000288DD12368012B07D1A3792BB90499D4
:101A60002846FFF73DFD002882D121462846FFF792
:101A7000CDFB0323237100287FF47AAF03984246FD
:101A80005946FFF7F5FB034600287FF471AFCDE917
:101A900000B6039A05992846FFF7ECFB00287FF46F
:101AA00067AFA379002B39D0059800F0ADF8AA6E86
:101AB000059952005E44034601920096039A284617
:101AC000FFF7D8FB00287FF453AF06A9032000F0EE
:101AD0003FF900287FF44CAF9DF81B300398012B91
:101AE00004D100F08FF900287FF442AF9DF819105F
:101AF0000398012905D0002200F090F900287FF416
:101B000037AFA168039800F0A6F900287FF430AF42
:101B1000039800F05DF900287FF42AAF0023A6792E
:101B2000A37121462846FFF771FB23680133236028
:101B300001232371014600287FF41AAF56B105989E
:101B40004246FFF795FB28B112E7022B3FF471AF35
:101B5000032B93D07B1C0AF1010A7FF4D1AE09B0AC
:101B6000BDE8F08F9142BFF4C3AEC3E62DE9F74361
:101B700006460F4690461D46FFF799F90828044689
:101B80001FD83046FFF796F9AC4238BF2C46814645
:101B9000E4B22A4641466846FFF7B2F8621B5FFA94
:101BA00089F10DEB0500FFF7B8F823466A46394680
:101BB0003046FFF758F9003818BF012003B0BDE8E0
:101BC000F0834FF0FF30F9E7FFF776B8042809D02B
:101BD000052803D1481E18BF01207047431A5842F8
:101BE00058417047012070474FF4C073584330305C
:101BF00070470878032806D00138012894BF4FF4B5
:101C0000C0704FF0FF30704710B50446FFF74FF932
:101C10004FF4C0734343A0683033984209D2FEF7B3
:101C2000C3FA00B101BE00231A4619461846FEF752
:101C300053FFC01A10BD80682838704738B5154664
:101C40000C4669B162B1FFF735F92544C0B22146AF
:101C500011F8013B834203D1A942F9D1012038BDDB
:101C60000020FCE770B50C46816886B0102302AAFC
:101C700010390546FFF7E5F8002802DA012006B022
:101C800070BD102202A92846FFF7D8FF002852D1C4
:101C90002E49102202A8FFF70FF800280CBF0123DD
:101CA00002232370A96801230DF107022839284671
:101CB000FFF7C7F80028E1DB9DF8073003F00F02BB
:101CC0001B096270237101220DF107012846FFF7FD
:101CD000B5FF10B96378042B03D901236370002387
:101CE0002371A968A61C0123324620392846FFF734
:101CF000A8F80028C2DB012231462846FFF79EFFE4
:101D0000D8B9A378012B14BF02230123A370A968BB
:101D1000E61C0123324618392846FFF792F80028BE
:101D2000ACDB012231462846FFF788FF38B1032398
:101D3000E3700020A3E70323B3E70323E6E7E37898
:101D4000012B14BF02230123F2E700BF802C000007
:101D500013B50C46C0B201A9FFF71CF828B90198C9
:101D60002146FFF77FFF02B010BD0120FBE7000016
:101D7000F0B587B040F20313144FADF800300C46B5
:101D80006E46002516F8010B01A9FFF703F880B98C
:101D900001988168102302AA1039FFF752F840B960
:101DA0001022394602A8FEF787FF30B11DB14FF06F
:101DB000FF3007B0F0BD0125E4E7019881680423F6
:101DC00022463039FFF73DF8F3E700BF802C0000D2
:101DD0008168054A08B510391023FFF744F8003828
:101DE00018BF012008BD00BF802C000007B5816826
:101DF000012301AA20398DF80430FFF7B7FE03B0A4
:101E00005DF804FB07B58168012301AA18398DF834
:101E10000430FFF7ABFE03B05DF804FB0E2A07B5F4
:101E200009D9FEF7C1F900B101BE00231A461946CF
:101E30001846FEF751FE0E29F3D841EA02118DF83B
:101E40000710816801230DF107022839FFF78EFE84
:101E500003B05DF804FB07B50191816804230DEB25
:101E600003023039FFF782FE03B05DF804FB000087
:101E70007FB501206946FFF76BFF48BB02A902202E
:101E8000FFF766FF024618BB9DF800509DF80860FA
:101E9000164C20782946FFF799FEF8B16078314654
:101EA000FFF794FED0B1A378042B03D09DF8031064
:101EB000994213D1E378042B03D09DF80B1099427B
:101EC0000CD12379042B05D16079831E022B0BD909
:101ED000FF2009E09DF802109942F5D00132032A53
:101EE00004F10604D5D1012004B070BD6C2C0000B3
:101EF0002DE9F04FAFB0DDE93A4713AD9846404BBE
:101F00002846D3F800B0164600F01DF900212846F7
:101F100000F01EF934B1002F04DD3A462146284670
:101F200000F01CFA738937891F44F3684FF00009E9
:101F30001F444F4541D80BA9284600F048FA3C9B66
:101F40004BB10BAC224603CAAA4218605960144632
:101F500003F10803F6D10023009342464FF6FF73C6
:101F6000314605A800F050F8044600283ED10DF196
:101F70000E0303AA04A905A800F092F800283CDB90
:101F800030D1BDF80E30102BF1D1BDF80C40202C13
:101F900030D1049923462A464046FEF752FF60BBE3
:101FA000224629460BA8FFF70FFE0446154B1B6877
:101FB00083421BD183460124D9E7399B389AA7EB8A
:101FC000090A9A4528BF9A46534649464046FEF7B5
:101FD00038FF044650B938995246284600F0BEF9F9
:101FE000D144A6E7002C14BF5C46012420462FB044
:101FF000BDE8F08F4FF0FF34F8E70446F6E700BF86
:10200000100100209C0100202DE9F7430E461746E1
:102010009946044628B94FF0FF38404603B0BDE862
:10202000F0830029F7D0002AF5D0CB680D891D4434
:1020300004230DEB030229463846FEF702FF8046D3
:102040000028E8D1BDF80410738946F608129142C1
:1020500023D1BDF806109942DDD104230DEB030214
:1020600029443846FEF7EDFE0028D4D1BDF80420FF
:1020700046F607139A42CED19DF82830A372738991
:10208000BDF80620A4F808902B44E36004351344FF
:10209000C4E9006763612561BFE7002BE6D0BAE7BA
:1020A0002DE9F7430F4690461E46044620B94FF0EF
:1020B000FF3003B0BDE8F0830368002BF7D043681E
:1020C000002BF4D04FF6FF79D4E904239A4216D2BC
:1020D00023685B8923B1E368934204BF043323611F
:1020E0000423216960680DEB0302FEF7AAFE0028B5
:1020F000DDD1A37A256923B1E368AB4201D8012081
:10210000D7E72189BDF80620494502F1040303D031
:10211000BDF804C08C450BD116B1BDF80410318058
:1021200004353D60A8F8002022691A442261C0E706
:102130002B442361C8E721B101290CBF0220FF20F5
:102140007047012070476C220021FEF7E6BD0000B9
:10215000234A2DE9F041B1F1000818BF9646214A03
:102160002149224F224E234D234C18BF944602F1A1
:10217000794208BF8E4602F57402204902F50162D9
:1021800008BF8C461E4918BF11461E4A18BF174685
:102190001D4A18BF164602F1D14202F5C01202F5DF
:1021A0001E6218BF1546194A034618BF1446184840
:1021B000C3F86880A2F11162A2F50C22A2F28E226D
:1021C00018BF02460020C3E90000C3E902ECC3E9DE
:1021D0000417C3E90665C3E90842BDE8F08100BF02
:1021E000D89E05C107D57C3667E6096A3AF54FA542
:1021F0007F520E518C68059BABD9831F85AE67BBA0
:1022000072F36E3C39590EF7310BC0FFA78FF9649A
:10221000A44FFABE2DE9F04FCFB004460B4600F1B3
:10222000080246AE00F1280710685168354603C51C
:102230000832BA422E46F7D14AADDDE9488295E828
:102240002012DDE946064449DDF834B101920291DD
:1022500004AA19464FF0000ABAF10F0F63D84F785D
:102260000B783F0447EA0367CB783B438F7843EA18
:1022700007234FEAF52E8CEA09078EEAB51E2F4098
:102280008EEA756E87EA0C0777440397029F936086
:1022900057F804EB0297039F77443B4440EA060E4D
:1022A0004FEA70375B4487EAB00700EA060B0EEA94
:1022B000080E4EEA0B0E87EAB05777440AF1010A7E
:1022C000DDF804E0CDF80480BAF1400F9E4402F13D
:1022D00004023B4401F10401E3461DD1CDE94C9CCD
:1022E000CDE94AE5CDE94868CDE90437CDE9463086
:1022F00045A9231D243453F8042F51F8040F9C42A0
:1023000002441A60F7D104A84FF4947100F0E2F887
:1023100000204FB0BDE8F08FB046CC460646A94637
:102320001846754698E7136852F8387C4FEAF34E22
:102330008EEA734E8EEA932E52F8143C3B4452F8C8
:10234000347C734452F834EC4FEAB74787EAFE17FF
:1023500087EADE073B448CE7D82C00002DE9F843E0
:1023600005460E4614467AB3036803F03F079B18F0
:10237000036022BF4368013343609FB1C7F1400946
:102380004A450FD300F128084A4608EB0700FEF73C
:10239000B7FC41462846FFF73DFFB0B93C444E44E8
:1023A000403C0746264404E02846FFF733FF60B967
:1023B000403C3F2CA6EB0401F6D82CB105F12800D7
:1023C00022463844FEF79CFC0020BDE8F8830368F1
:1023D00070B503F03F030446581C2344802238287C
:1023E0000D4683F8282004F1280662D8C0F138028F
:1023F00000213044FEF791FCD4E900315A0F42EA43
:10240000C102DB0012BA1BBA22666366314620465F
:10241000FFF700FF00284BD1E37A2B7063896B70C4
:10242000A3681B0AAB70A368EB70E37B2B71E38995
:102430006B71E3681B0AAB71E368EB71E37C2B7291
:10244000638A6B7223691B0AAB722369EB72E37DAB
:102450002B73E38A6B7363691B0AAB736369EB735A
:10246000E37E2B74638B6B74A3691B0AAB74A36943
:10247000EB74E37F2B75E38B6B75E3691B0AAB751C
:10248000E369EB7594F823302B76638C6B76236AC3
:102490001B0AAB76236AEB76A36E4BB994F8273010
:1024A0002B77E38C6B77636A1B0AAB77636AEB77F6
:1024B00070BDC0F1400200213044FEF72EFC3146D1
:1024C0002046FFF7A7FE0028F2D101463822304609
:1024D00090E700000A4619B1024B00211B6818471B
:1024E000704700BFD82D000013B590F83730846BCB
:1024F000019390F83630009390F8353090F83420FE
:10250000016B601E00F092FA003818BF01204000F5
:1025100002B010BD70B50C4605461646FEF75AFBD4
:10252000241A002C09DC46B1A86B013800F050FBDE
:10253000003818BF0120400070BD0220FCE7806B0E
:1025400008B5013800F044FB003818BF01204000F6
:1025500008BD37B50546806B144648B9FDF724FE23
:1025600000B101BE00231A4619461846FEF7B4FA18
:1025700012B9022003B030BDEB7E9B0727D413793C
:1025800085F83430D37985F83730937985F836304B
:1025900013682B63537985F8353053690093D2E97A
:1025A0000332A168013800F0A7F90028E1D1E379EE
:1025B000A86B0193A379009363792279216801388C
:1025C00000F034FA003818BF01204000D2E70B2099
:1025D000D0E708B5FDF7E8FD00B101BE00231A46BB
:1025E00019461846FEF778FA806B08B508B9FFF768
:1025F000F0FFBDE80840013800F0D0B9806B08B5A5
:1026000008B9FFF7E6FFBDE80840013800F0AAB9B5
:10261000806B08B508B9FFF7DCFFBDE8084001385A
:1026200000F07CB970B5C569044628460E46FEF731
:102630008FFB054415F8013CA3F13000092814D89C
:102640002F3BA3630A4B23600A4BE3600A4B636092
:102650000A4BA3600A4B63620A4BA3620A4BE36214
:10266000314600F0C3F9002070BD0220FCE700BF36
:10267000532500003F25000015250000E924000037
:1026800011260000FD250000E925000043688B426B
:1026900007D8826813448B4234BF6FF001000020DA
:1026A00070476FF00100704738B500242546E0B24E
:1026B000FDF716FF48B103685B69984701340028AD
:1026C00018BF6FF00405FF2CF1D1284638BD08B5BE
:1026D000FDF706FF08B1007C08BD0120FCE708B546
:1026E000FDF7FEFE08B1007D08BD0120FCE72DE9E5
:1026F000F0410D4617461E46FDF7F2FE0446B0B106
:102700002946FFF7C3FF90B9A9192046FFF7BEFF7E
:1027100068B923683A46D3F80080294633462046F4
:10272000C047002818BF6FF00400BDE8F0816FF0CB
:102730000100FAE72DE9F04105460E4690461F4696
:10274000FDF7CEFE0446E8B13146FFF79FFFC8B95A
:10275000F1192046FFF79AFFA0B9EB080C4AD35CA9
:1027600005F007052B41DB070FD4236842465D685F
:1027700031463B462046A847002818BF6FF00400AA
:10278000BDE8F0816FF00100FAE76FF00600F7E7AF
:102790000C1900202DE9F74305460F469046FDF73A
:1027A0009FFE0646002850D03946FFF76FFF0028ED
:1027B0004BD107EB080949463046FFF767FF002871
:1027C00043D1EB08224AD45C05F007052C4114F0F4
:1027D000010437D1B94538D933689B6983B3424680
:1027E00039463046984708B16FF00404204603B0DC
:1027F000BDE8F083DDE900130B449F4217D3013598
:10280000F368AB42F2DD33686A46D3F80C802946A0
:1028100001AB3046C0470028ECD0FDF7C5FC00B145
:1028200001BE00231A4619461846FEF755F9894598
:10283000E5D9336830469B6898470028DFD0D3E756
:102840002546DDE76FF00604D0E76FF00104CDE721
:102850000C19002070B5074D00246E1E3369B06955
:102860009847002804DB0134082C05F8010FF5D146
:10287000204670BD1119002038B51C4CD4F8203109
:102880006BB10023C4F82031FFF7E4FF00281CDD02
:10289000174BC4F844350123C4F84805A360134D11
:1028A000D5F8103183B1134C0023C5F8103161788D
:1028B000E368A06998470028B7BF2378012343F055
:1028C00002032370A8BF2B6038BD0A4C63690BB1AB
:1028D000A0699847054B4FF48072C3F80823012282
:1028E000DA60237823F004032370D8E70020004047
:1028F000121900201019002030B548B9064C25786F
:10290000ED0705D4C4E90331039B6261A36130BDC7
:102910004FF0FF30FBE700BF1019002038B5E0B9D9
:10292000EFF3108572B60D4C23785B0713D4FFF7D5
:1029300091FF00280FDD0A4B4FF48072C3F8042387
:10294000A21CC3F844250122C3F848059A602378E5
:1029500043F00403237005B962B638BD1019002096
:102960000020004038B5A0B90A4C23789B0710D549
:10297000EFF3108572B6E3686178A069984730B9C3
:10298000237860F341032370034B01221A6005B9D9
:1029900062B638BD101900200020004082B08DF8CA
:1029A0000710E8B90F4B1B78DA0719D513F0040F9D
:1029B0000D4B03D0D3F82021002AFBD00022C3F80E
:1029C00020210DF10702C3F844250122C3F8482550
:1029D0009A60054BD3F82021002AFBD00122DA604F
:1029E00002B070471019002000200040A8B90C4B1D
:1029F0000C4A9B689A640C4B91F90020C3F80C2593
:102A000091F90120C3F8142591F90220C3F8082593
:102A100091F90320C3F8102570474FF0FF3070473D
:102A200000ED00E0792800000020004038B59DF856
:102A30001040002839D15A4D2D78ED0735D4082A99
:102A400033D1012B31D1012C2FD09DF81430022C21
:102A50000CBF0E240024012B14D1524BD3F80825AF
:102A6000013244F0010403D0D3F81035013309D109
:102A7000FDF79AFB00B101BE00231A46194618461D
:102A8000FEF72AF84DF6C023994267D020DCB1F555
:102A9000615F66D011DCB1F5965F64D008DCB1F5FA
:102AA000966F62D0B1F5166F62D04FF0FF3054E0F0
:102AB000B1F5165FF9D13C4B2BE0B1F5E14F5AD09F
:102AC000B1F5164F59D0B1F5964FEED1374B20E006
:102AD000374B994254D011DCB1F5E13F53D007DCBC
:102AE000B1F5614F52D0B1F5963FDED1314B10E0D8
:102AF000B1F5613FD9D14FF06C730AE0B1F5612FA8
:102B000047D02D4B994247D0B1F5E12FCDD14FF0B1
:102B1000E863244A0021C2F800154FF0FF31C2F8E3
:102B20000813C2F82435254BC2F86C4504211960FE
:102B30000823C2F8003522491023C2F804330123C8
:102B4000C2F83415C2F83835136011F8013C23F08F
:102B5000070343F0010301F8013C38BD4FF465035E
:102B6000D7E7184BD5E7184BD3E74FF49E23D0E7B0
:102B70004FF41D23CDE7154BCBE74FF41D03C8E7FA
:102B80004FF08063C5E74FF0EB73C2E74FF46B0380
:102B9000BFE74FF07063BCE74FF08053B9E700BF69
:102BA00010190020002000400050270000A04E0017
:102BB00090D0030000903A0140420F0000E100E095
:102BC0001119002000F03A0000B0130000C0750099
:102BD00088B90A4A137860F3000313701378C3F3BB
:102BE00080015B07FAD4064B4FF0FF32C3F80015A3
:102BF000C3F8082370474FF0FF30704710190020CA
:102C0000002000401C2C0000000000000000080014
:102C10008000000001000000FF00000081060000AD
:102C2000C1050000710500008F06000000000000D3
:102C3000BD050000000000007561727430000608D8
:102C4000050700005C0100200000000000000000FB
:102C5000000000000000000000000000010501006D
:102C60000105030204010401030403020401040337
:102C7000040204010401040301030304010400002D
:102C800077C295F360D2EF7F3552500F2CB6798022
:102C900000000000000000000040000001000000F3
:102CA0000080000000A003000200000000200400DB
:102CB00000A003000300000000C007000010000097
:102CC0001000000000400000004000001100000063
:102CD00000D0070000300000982F8A4291443771DD
:102CE000CFFBC0B5A5DBB5E95BC25639F111F1598F
:102CF000A4823F92D55E1CAB98AA07D8015B8312D1
:102D0000BE853124C37D0C55745DBE72FEB1DE807C
:102D1000A706DC9B74F19BC1C1699BE48647BEEFAB
:102D2000C69DC10FCCA10C246F2CE92DAA84744A36
:102D3000DCA9B05CDA88F97652513E986DC631A8AC
:102D4000C82703B0C77F59BFF30BE0C64791A7D58B
:102D50005163CA0667292914850AB72738211B2E13
:102D6000FC6D2C4D130D385354730A65BB0A6A76FB
:102D70002EC9C281852C7292A1E8BFA24B661AA807
:102D8000708B4BC2A3516CC719E892D1240699D617
:102D900085350EF470A06A1016C1A419086C371E90
:102DA0004C774827B5BCB034B30C1C394AAAD84E6E
:102DB0004FCA9C5BF36F2E68EE828F746F63A578A9
:102DC0001478C8840802C78CFAFFBE90EB6C50A43C
:102DD000F7A3F9BEF27871C61B0D000024D3FF7F64
:102DE0000100000020DEFF7FB0B0B0801EDEFF7F5C
:102DF000010000000090D00300000000040100204A
:108000003DB8F3960000000020000000F0290200B7
:10801000000000000100000000000000000000005F
:1080200000000120218100007D8100007F8100008F
:108030008181000083810000858100000000000034
:1080400000000000000000000000000023A9000064
:10805000898100000000000069A9000093A90000C8
:108060008F8100008F8100008F8100008F810000D0
:108070008F8100008F8100008F8100008F810000C0
:108080008F8100008F8100008F8100008F810000B0
:108090008F8100008F8100008F8100008F810000A0
:1080A0008F8100008F8100008F8100008F81000090
:1080B0008F8100008F8100008F8100008F81000080
:1080C0008F8100008F8100008F8100008F81000070
:1080D0008F8100008F810000000000000000000080
:1080E0008F8100008F8100008F8100008F81000050
:1080F0008F8100008F8100008F8100008F81000040
:108100008F8100008F8100008F810000000000003F
:108110008F81000000000000000000008F8100003F
:108120004FF000000C4A0D4B9A42BCBF42F8040BC2
:10813000FAE70B490B4A0C4B9B1A03DD043BC8586A
:10814000D050FBDC09480A4900F018FD0948804777
:1081500000F030F8084800478805002090550020BE
:10816000B0A502000001002060050020905500200D
:1081700050FE0020658400005D860000FEE7FEE7FB
:10818000FEE7FEE7FEE7FEE7FEE7FEE7FEE7FEE7C7
:10819000BFF34F8F0549CA6802F4E062044B1343F2
:1081A000CB60BFF34F8F00BFFDE700BF00ED00E0E5
:1081B0000400FA054FF080430122C3F87825704788
:1081C000024BD3F8F00000F00100704700ED00E032
:1081D00008B5FFF7F5FF00B101BEFFF7D9FF0000BA
:1081E0004FF0804301225A60D3F818240F4B1340FC
:1081F000B3F1011F18D04FF080430122DA60002153
:10820000C3F80411C3F818259A604FF08043D3F8DF
:108210000431002BF9D04FF08043D3F81824034BDE
:108220001340B3F1011FF0D1704700BF03000100FC
:10823000BFF34F8F0549CA6802F4E062044B134351
:10824000CB60BFF34F8F00BFFDE700BF00ED00E044
:108250000400FA054FF0704393F8E03F062B01D07D
:10826000002070474FF07043D3F8E43F13F00F0F36
:1082700009D14FF07043D3F8E83F03F0F003302BFF
:1082800003D00020704700207047012070474FF056
:10829000704393F8E03F062B01D0002070474FF069
:1082A0007043D3F8E43F13F00F0F0DD14FF070433C
:1082B000D3F8E83F03F0F003302B07D0402B07D072
:1082C000502B07D0002070470020704701207047D6
:1082D00001207047012070474FF0704393F8E03F52
:1082E000062B01D0002070474FF07043D3F8E43FD5
:1082F00013F00F0F09D14FF07043D3F8E83F03F0AC
:10830000F003302B03D0002070470020704701207D
:1083100070474FF0704393F8E03F062B01D00020E8
:1083200070474FF07043D3F8E43F13F00F0F0DD1B7
:108330004FF07043D3F8E83F03F0F003302B07D041
:10834000402B07D0502B07D00020704700207047EB
:108350000120704701207047012070474FF07043A3
:1083600093F8E03F062B01D0002070474FF0704398
:10837000D3F8E43F13F00F0F09D14FF07043D3F857
:10838000E83F03F0F003302B03D0002070470020BB
:108390007047012070474FF0704393F8E03F062B81
:1083A00001D0002070474FF07043D3F8E43F13F042
:1083B0000F0F09D14FF07043D3F8E83F03F0F003FB
:1083C000302B03D0002070470020704701207047F9
:1083D0004FF0704393F8E03F062B01D00020704728
:1083E0004FF07043D3F8E43F13F00F0F09D14FF073
:1083F0007043D3F8E83F03F0F003502B03D0002084
:10840000704700207047012070474FF0704393F889
:10841000E03F062B01D0002070474FF07043D3F8A7
:10842000E43F13F00F0F0DD14FF07043D3F8E83F46
:1084300003F0F003302B07D0402B07D0502B07D090
:1084400000207047002070470120704701207047CE
:1084500001207047014B024A1A607047000100205A
:108460000090D00308B5FFF7F5FE10B1614B624AEA
:108470005A67FFF70CFF48B14FF08053D3F84432EE
:10848000C3F342334FF08042C2F83C35FFF724FF7C
:1084900030B15A4AD2F8FC3023F08073C2F8FC3075
:1084A000FFF737FF40B14FF080430022C3F80C21A3
:1084B000C3F81021C3F83825FFF750FF20B14FF063
:1084C00080430322C3F8A025FFF765FF60B14C4B42
:1084D0000522C3F810260122C3F888260022C3F81B
:1084E00018263F22C3F81426FFF772FF002846D053
:1084F0004FF08052D2F80414424BC3F82015D2F842
:108500000814C3F82415D2F80C14C3F82815D2F8AF
:108510001014C3F82C15D2F81414C3F83015D2F87F
:108520001814C3F83415D2F81C14C3F84015D2F847
:108530002014C3F84415D2F82414C3F84815D2F80F
:108540002814C3F84C15D2F82C14C3F85015D2F8DF
:108550003014C3F85415D2F83414C3F86015D2F8A7
:108560003814C3F86415D2F83C14C3F86815D2F86F
:108570004014C3F86C15D2F84424C3F87025FFF7F3
:1085800044FF48B14FF08053D3F8583203F04F0303
:108590004FF08042C2F8E43E4FF01023D3F80C3283
:1085A00013F0010F04D1FFF755FF00F0CDFA08BD1D
:1085B000154B0122C3F80425134BD3F80034002BCC
:1085C000FAD04FF01022D2F80C3223F00103C2F897
:1085D0000C320D4BD3F80034002BFAD00A4B00229A
:1085E000C3F80425084BD3F80034002BFAD0FFF76A
:1085F0001FFE00BF00C007400DF0ADBA00ED00E067
:108600000050004000C0004000E001407047000002
:1086100038B50E4D0E4BED1AAD10002404E00C4B96
:1086200053F8243098470134AC42F8D3FFF7EEFFFB
:10863000084D094BED1AAD10002404E0064B53F829
:10864000243098470134AC42F8D338BD1893020067
:1086500018930200189302001893020008B5FFF760
:10866000D7FF034800F0BEFB00F028FC08BD00BFA8
:10867000098900007047000030B583B005F08CFD1B
:1086800000F0E6F905F08EFD1D4B1E4ADA601E4A29
:108690001A611E4A1A601E4A1A6200F0CDF948B1EA
:1086A000FFF78EFD00B101BE00231A461946184699
:1086B00000F08EFA684602F053FA164C21466846DE
:1086C00002F0C0FA20461AF033F902F05FFD124CB6
:1086D000204603F07DFF114D284603F079FF104836
:1086E00003F076FF284603F073FF204603F070FF87
:1086F0001AF0DCFD00F066FE00F032FEFAE700BF83
:10870000DC02002075860000D1870000E9890000A6
:1087100045210200880500203493020018930200CE
:108720002893020000B59FB00DF17301002016F0F0
:1087300095FC10B11FB05DF804FB6022002102A877
:1087400002F09AF906238DF808309DF82B3043F09B
:1087500001038DF82B3080238DF82A301AF0B0F900
:10876000099002F0B5F98DF828009DF8293043F002
:1087700001038DF82930144B1B681D931DAB039327
:1087800001238DF810309DF8113043F001038DF86E
:10879000113002A812F0E4F80028CBD100211A9180
:1087A0001B91ADF8701002238DF868308DF8693098
:1087B0000191064B00931AAB6FF000429DF87300D5
:1087C00012F024F8B6E700BFE49C0200178800000E
:1087D00008B500201AF095FC10B9FFF7A3FF08BDFB
:1087E000FFF7EEFC00B101BE00231A4619461846F9
:1087F00000F0EEF910B50446133000F088F8601D63
:1088000000F085F804F11A0000F081F804F10C0082
:1088100000F07DF810BD10B58CB004460378112B24
:108820006ED8DFE803F009256D2C6D6D6D6D6D4020
:10883000446D6D6D6D6D6D58436833B16468002C87
:108840005FD0FFF76FFF00245BE001A9008911F002
:1088500069FF18B901A8FFF7CDFFEFE7FFF7B0FCFC
:1088600000B101BE00231A461946184600F0B0F9BF
:108870000830FFF7BFFFFFF755FF002441E001A9D3
:10888000008911F04FFF044618B901A8FFF7B2FFA5
:1088900037E0FFF795FC00B101BE00231A461946E8
:1088A000184600F095F9FFF73DFF002429E001A9E3
:1088B000008911F037FF044618B901A8FFF79AFFA5
:1088C0001FE0FFF77DFC00B101BE00231A461946E8
:1088D000184600F07DF901A9808811F023FF28B91E
:1088E0000DF10F0019F0F1FB01240AE0FFF768FC1D
:1088F00000B101BE00231A461946184600F068F977
:10890000002420460CB010BD08B5FFF7B5FE704737
:1089100008B59C46038A8B4207D3934207D8029B33
:10892000614616F009FC20B908BD0D20FCE70D20BA
:10893000FAE70E20F8E7000030B585B014469368DA
:108940001D682649284619F044FCB8B923785BB95C
:1089500002F03EF80390042203A9606800F0E5FDF0
:1089600000B1112005B030BDFFF72AFC00B101BEF7
:1089700000231A461946184600F02AF918492846D5
:1089800019F027FCF8B9237853B1012B11D100233A
:108990000093144B012211466068FFF7B9FFE1E72D
:1089A00001221049606800F0C0FD0028DAD01120D3
:1089B000D8E7FFF705FC00B101BE00231A461946AF
:1089C000184600F005F9FFF7FBFB00B101BE0023DC
:1089D0001A461946184600F0FBF800BF1C9D02001D
:1089E000089D0200A105002000B58BB00378022B82
:1089F0000BD0032B0FD0012B13D183686946586825
:108A000019F006FC0BB05DF804FB83686946186832
:108A100019F0FEFBF6E783686946186819F0F8FB61
:108A2000F0E7FFF7CDFB00B101BE00231A4619465F
:108A3000184600F0CDF8000008B5044814F0BAFC60
:108A400000B108BD014814F091FCFAE7E89C02006F
:108A500008B500F045FA04F091F805F037FB03F093
:108A600069FD02F035FB04F02DFE04F085FA04F0F8
:108A700095FF05F049FA02F041FB1AF05FFD15F091
:108A800019F81AF021F81AF08DF819F057FF19F0BB
:108A9000DDFE1AF0CDFA02F0BFF802F0C5F904F0DD
:108AA00075F900F00DF807F08BF906F09DFF06F060
:108AB0004DFE07F0C3F802F075FA08F07FF808BD24
:108AC00008B50E4B1B782BB10D490E4805F03AFD49
:108AD00050B908BDFFF774FB00B101BE00231A4670
:108AE0001946184600F074F8FFF76AFB00B101BEA2
:108AF00000231A461946184600F06AF8641E002042
:108B0000389302004C010020014B93F9000070479C
:108B1000A2050020032803D8034B187000207047DB
:108B20006FF00100704700BFA305002008B5FFF7F4
:108B3000F1FF00B108BD0249024805F0F6FCF9E773
:108B4000A30500204C010020094A0A4B9A420AD092
:108B5000002306E0074A52F82310054A42F8231082
:108B60000133352BF6DD024A034B9A60704700BF94
:108B7000000000202080000000ED00E0034B1860A2
:108B8000034B1960034B1860704700BFAC05002011
:108B9000A8050020A405002003460A4A10680344E3
:108BA000094A12689A4206D8084A12689A4205D3BE
:108BB000044A136070474FF0FF3070474FF0FF30AA
:108BC000704700BFA4050020AC050020A8050020C8
:108BD00008B5754604460E4601F0E2FC03F0C0FB02
:108BE0006CB1334622462946074803F0F1FC074B97
:108BF0004FF000425A60BFF36F8FFFF7E9FA294642
:108C0000034803F0E5FCF2E75893020000ED00E0B2
:108C10004893020000B583B0044603F0A1FB1B4D4E
:108C200069682268C1F30801194803F0D1FC206883
:108C3000836842680168C0680090164803F0C8FC69
:108C400023690093E368A2686168134803F0C0FCDD
:108C5000236A0093E369A2696169104803F0B8FCD4
:108C60002068836942690169C06900900C4803F07B
:108C7000AFFC6968EA6AAB6A0A4803F0A9FCA96B11
:108C80006A6B094803F0A4FCFFF7A2FA00ED00E0CC
:108C900070930200A4930200D89302000C94020087
:108CA00040940200749402009C940200F8B51DF0F8
:108CB00049F900260EE001F0FFF81DF043F92646C1
:108CC00014E000F5F06025E000201DF05BF8284678
:108CD00001F06CFC154A13680133136001F09EFB30
:108CE000044606F5F063C31A002BE4DA01F058FCE1
:108CF000054601F093FB074601F020FA044638468A
:108D000000F0AEF9844228BF044606F5F063D81B94
:108D10000028D6DDA04228BF20460B28D4D9B0F5C4
:108D2000963FD2D94FF49630CFE700BF080E00200F
:108D300008B50346002108469847FFF741FA00B1FD
:108D400001BE00231A4619461846FFF741FF0000EE
:108D5000014B1868704700BFB005002000B585B012
:108D6000402303931B4B02934FF0FF330193FF23E8
:108D700000930023184A1949194801F051FA50B9D3
:108D800001F0DCF888B947F230501DF093F8B0B923
:108D900005B05DF804FBFFF713FA00B101BE002334
:108DA0001A4619461846FFF713FFFFF709FA00B1F4
:108DB00001BE00231A4619461846FFF709FFFFF7C0
:108DC000FFF900B101BE00231A4619461846FFF705
:108DD000FFFE00BF100E0020AD8C0000B894020012
:108DE000100F002010B584B004462E4B00221A60EC
:108DF0005B602D4B1A605B6000F0E4FA00F01AFA39
:108E000000F010FA01F008FC18BB94B14FF40073A5
:108E10000393264B02934FF0FF3301937F2300937C
:108E20002346234A2349244801F0FAF910F0FF0FA2
:108E300019D11CF009FD012000F0AAF910F0FF0F74
:108E40001BD1022000F0A4F910F0FF0F1FD104B0D5
:108E500010BDFFF7B5F900B101BE00231A4619464F
:108E60001846FFF7B5FEFFF7ABF900B101BE0023CE
:108E70001A4619461846FFF7ABFEFFF7A1F900B1F5
:108E800001BE00231A4619461846FFF7A1FEFFF758
:108E900097F900B101BE00231A4619461846FFF79C
:108EA00097FE00BF600F002068190020B805002061
:108EB000318D0000C0940200B80D002008B51DF0EF
:108EC00039F801F011FC00B908BDFFF779F900B1DC
:108ED00001BE00231A4619461846FFF779FE000026
:108EE00008B5114B1B7853B1032000F051F910F075
:108EF000FF0F0ED100F0F0FE00F08EFF08BDFFF76F
:108F00005FF900B101BE00231A4619461846FFF763
:108F10005FFEFFF755F900B101BE00231A4619465E
:108F20001846FFF755FE00BF641E0020F8B5044642
:108F30000D4617461E462022002101F09DFD676068
:108F4000A6602561F8BD000038B5044601F028FB95
:108F50000546E3693BB1A26972B1D361E369A269D5
:108F60001A600023E361206910B1214600F009FA7C
:108F7000284601F01BFB38BD014A5360EEE700BFF5
:108F8000600F002070B5036993B104460E460029B6
:108F900034DB01F005FB05462046FFF7D5FF06B997
:108FA000012601F03BFA30446061154B1B680AE072
:108FB000FFF706F900B101BE00231A46194618460C
:108FC000FFF706FE9B691BB15A69821A002AF9DA7B
:108FD0005BB1DA69E261A361DA6914601834DC61BB
:108FE000284601F0E3FA002070BD0023A361044B82
:108FF0005A68E261146018345C60F1E70220F3E71C
:10900000600F002038B501F009FA05460FE0E2696B
:10901000124B5A60E369A2691A600023E36101F010
:10902000C5FAD4B12069A0B1214600F011F901F0D0
:10903000B7FA0A4B1C68002CF1D06369EB1A002BBD
:1090400005DBA369002BE2D0E269DA61E2E70024E4
:10905000E5E7636820469847E9E738BD600F0020E0
:1090600010B5044601F0A5FA30B10B4B1B687BB17B
:109070005869001B0AD410BDFFF7A2F800B101BE69
:1090800000231A4619461846FFF7A2FD0020F2E712
:109090004FF0FF30EFE700BF600F002030B4164BF9
:1090A0001D6815B12B46002408E0034643F8205FF5
:1090B000114A5360106012E01C461B6A53B1834290
:1090C0000DD0017E1A7E914204D3F5D1417E5A7EA5
:1090D0009142F1D25CB1236A03621BB1206200208D
:1090E00030BC704700F12003034A5360F6E7056285
:1090F000014B1860F3E700BF680F002010B504466D
:1091000003694169984728B1E37E13F0080F05D140
:10911000002003E0E37E43F00103E37610BD8446C4
:10912000C1610276437600208CF81B008CF81A008F
:10913000009BCCF81030019BCCF81430CCF8000028
:10914000CCF80400CCF80800CCF80C007047000004
:1091500010B582B00446DDF814C0CDF804C0DDF8C7
:1091600010C0CDF800C0FFF7DAFF08B102B010BDA3
:109170002046FFF793FF0028F8D1044B1B68002B13
:10918000F4D02046FFF7BAFFF0E700BFB00500209B
:1091900038B50546084B1C68002200E0246A44B13B
:1091A000237EAB42FAD12046FFF7A8FF02460028F3
:1091B000F4D0104638BD00BF680F002038B5054612
:1091C000064B1C6800E0246A2CB12946E06901F0D6
:1091D00073FC0028F7D1204638BD00BF680F00207F
:1091E00070B50D461646FFF7E9FF0446A0B1C37EF1
:1091F00013F0010F12D003681BB13246294698477D
:1092000070B901F0CDF9A37E0133A376E37E43F07C
:109210000203E37601F0CAF9204670BD0024FBE7A3
:109220000024F9E7024B00221A605B60704700BF20
:10923000680F00200023036043608360C36000F177
:109240000803C3607047C068003818BF012070472A
:1092500070B5F0B10C460646FFF7F5FFC8B101F056
:109260009FF905462378F3B9012323700023E360B7
:10927000F3681C600C34F4607068D8B1037B022B77
:1092800014D0002400237360284601F08FF99CB9A4
:1092900070BDFEF795FF00B101BE00231A461946C6
:1092A0001846FFF795FC01F081F9F1E700F0E4FEC4
:1092B0000124E7E70024E7E7002000F069FFE7E783
:1092C0000346806820B1C2689A6012B1002303701F
:1092D000704703F10802DA60F8E7F8B5064600F0D7
:1092E00077FE04463368834201D023B9306001F031
:1092F00057F9054622E0FEF763FF00B101BE0023E7
:109300001A4619461846FFF763FC06F10803F36096
:109310001BE074604FF0FF31204600F065FE637B78
:1093200043F008036373284601F040F9002000F081
:109330002FFF01F035F9054600237360B768002F51
:10934000E7D0FB68B360002BDFD000233B70637B6A
:1093500023F008036373284601F028F93846F8BD66
:1093600008B5FFF7BAFF43680BB1984708BDFEF791
:1093700027FF00B101BE00231A4619461846FFF721
:1093800027FC38B505460C4601F00AF923784BB1A5
:10939000AB68A3420BD01A46DB68A342FBD1DB6863
:1093A000D36063B10023237001F000F938BDDB689E
:1093B000AB60002BF6D105F10803EB60F2E70C324D
:1093C000EA60EFE700487047700F002070B5C3886F
:1093D0006BB904460D4600F110064A79103130464B
:1093E00001F022FB6B7963711E44266070BDFEF7AD
:1093F000E7FE00B101BE00231A4619461846FFF7E2
:10940000E7FB0346002018605B609860D860186135
:109410005861D9601A61704738B5054601F0C0F847
:109420002C6814B163682B602BB101F0BFF804B154
:10943000103C204638BD6D60F7E7F8B55379072B2F
:1094400016D905460E46144602F1100701F0A8F899
:10945000002344F8143F6B681F606C6001F0A6F8AD
:1094600046B105F108013046FFF7F2FE002000E0AA
:109470000220F8BD0020FCE7103A02804160002085
:10948000704738B503888B4210D304460D464068B8
:1094900000F0E5FB48B10023C36003714371C38052
:1094A00000F110032B440360846038BD0020FCE70A
:1094B00038B501F108050388AB420ED3FF2D0ED855
:1094C0000021FFF7DEFF38B1457103682B440360CC
:1094D000002303824382436138BD0020FCE7002063
:1094E000FAE708B5836823B10146586800F0DFFB4E
:1094F00008BD0020FCE758B110B5C468FFF7F1FFC4
:10950000034618B92046002CF7D10023184610BD99
:109510000023184670470346002003E0DA88104411
:1095200080B2DB68002BF9D170472DE9F0470028A5
:109530004BD00F4691468246D0F8088003461E461F
:10954000DB68002BFBD14D46B36806F110041B8885
:109550001C443068F3881844241AA4B264B14C4502
:1095600000DD4C462246394601F05EFAF38823447A
:10957000F3802744A9EB0405002D16DD00214046A9
:10958000FFF77FFF044680B1B8F80020AA42A8BFC9
:109590002A46C28092B23946006801F045FAE38853
:1095A0001F44ED1AF4602646E6E79AF80530072BCB
:1095B00007D9BAF81030A9EB050913FA89F9AAF806
:1095C000109025B92846BDE8F0870225FAE7012565
:1095D000F8E770B110B402E0C91A20463CB1C46883
:1095E000C3888B4202DCF7D1002CF5D1118010BC6E
:1095F00070477047F0B583B00746084611461E46CF
:109600000DF10602FFF7E5FF054605E0341BA6B2A3
:10961000ED680023ADF8063096B1ADB1EC88BDF829
:109620000630E41AB442A8BF3446A4B229682246E0
:1096300019443846FFF779FF03460028E6D000E0DA
:109640000023184603B0F0BD0223FAE7F8B504463C
:109650001F4616461AB910461EE0891AE46800290A
:1096600013DDECB1E2888A42F7DD0EE0E5886D1A81
:10967000B542A8BF354623682A461944384601F04A
:10968000D3F9761B2F44E4680021002E01DD002C65
:10969000ECD1002E01DC0020F8BD4FF0FF30FBE7DD
:1096A0004FF0FF30F8E7002852D010B504460029EB
:1096B0001BDB03460A4605E0801AD8801868104470
:1096C000186000224BB1002A07DDD8889042F3DCF5
:1096D000121A0020D880DB68F4E76379072B03D9DE
:1096E000238A511A0B44238210BDC1F1000E034698
:1096F0000022D88802449C46DB68002BF9D17045D3
:109700000DDA891819D46379072B00D92182002C2E
:10971000EAD0E3888B4212DAC91AE468F7E71FFA45
:109720008EFEA0EB0E00ACF806006379072BDBD9A8
:10973000238AA3EB0E032382D6E70021E3E7E1802F
:10974000E0680028D0D0FFF7D6FE0023E360CBE727
:1097500070472DE9F04182B01E1E2DDD17460DF138
:109760000602FFF736FF04464FF0000809E04544C3
:109770001FFA85F8B04527D0E4680023ADF806301D
:10978000BCB1F4B1A6EB0802E388BDF806001B1AD1
:109790009A42A8BF1A4695B2002DE8D023682A46FF
:1097A00007EB0801184401F01BF903460028DED03E
:1097B00003E06FF0004300E00023184602B0BDE86C
:1097C000F0816FF00043F8E70023F6E770B5044638
:1097D0000E4619E000201BE00021A068FFF751FEB3
:1097E0000546002D33D06379072B36D8AA6805F1DA
:1097F0001003128813442968EA880A449B1A11FA54
:1098000083F32B60EC602C4661790729E2D9084686
:10981000234653F8102B0344D31A9BB29E4200DA1E
:109820003346D21A2260E28898B20244E2800729C5
:1098300002D9228A10442082F61A0CD00729CBD9EB
:109840000839C9B2A068FFF733FE0546C9E72046CC
:10985000FFF751FE2C46204670BD21462846FFF7F3
:10986000B5FD00236371C1E72DE9F04383B0814664
:10987000884617461E460DF10602FFF7AAFE05466A
:1098800048B94FF0FF362DE066B3EB68ABB100226C
:10989000ADF806201D46EC88BDF80630E41AB44247
:1098A000A8BF3446002CEFDD28682246394618440C
:1098B00001F0BAF82744361BE6E7B2B2394628462B
:1098C000FFF733FE68B999F80520072A0ED9B0448E
:1098D000B9F810209045B8BF9046A9F81080064608
:1098E00000E00646304603B0BDE8F0830646F9E7DF
:1098F00003461A46DB68002BFBD1D1604379072B66
:1099000006D94B79072B0FD9038A0A8A134403829D
:1099100000234B717047028AB3F806C0624402828A
:10992000DB68002BF7D1F3E70B46FAE770B5054685
:10993000806803888B4225D30E462B461C46DB6885
:10994000002BFBD1A26804F1100312881344226893
:10995000E1880A449B1A9BB29E420BD82068E38898
:1099600018443344E3806B79072B02D92B8A3344A4
:109970002B8270BD0021FFF784FD0028F9D0E06044
:109980000446EBE70020F4E72DE9F0410446806847
:10999000E2888A4265D20D4604F1100306883344FA
:1099A000216811445B1A12FA83F32946AB4212DB99
:1099B000E36883B1AA1A95B227461C46BB6807F133
:1099C00010081B8898443B68FA881344A8EB0308E6
:1099D0001FFA88F815E06379F61AB1423CDC0021E1
:1099E000FFF74FFD0746002836D06379072BE5D9EE
:1099F0002146FFF7EBFCE1E72368334423601DB306
:109A000014B3E6882B464545A8BF43469E42A8BFEF
:109A10001E463868FB8832462168184401F004F875
:109A2000B2B2AD1AADB2FB881344FB80E3889B1A37
:109A30009BB2E380A8EB0608002BDDD1E668204648
:109A4000FFF74FFD3446DAE71DB9FC603846BDE844
:109A5000F0813846FFF745FD2046FFF74CFD002713
:109A6000F4E72746F2E710B50C46FFF7AFFE10B15A
:109A70002146FFF789FF10BDF8B50646C788C7B96C
:109A8000C46844B1E38833B9E568F5602046FFF760
:109A900028FD2C46F5E764B16379072B00D91F46F2
:109AA000224652F8103B3A449B1A9BB272799A4272
:109AB00001D93046F8BD627106F1100104F11000C1
:109AC00000F0B2FF3046FFF70CFD2646F1E72DE926
:109AD000F843814600284BD009B1FFF709FF4D46F6
:109AE0006A79072A0BD913462F4657F8101B3B44B7
:109AF000CB1A9BB25BB1072A03D9BC1802E0002342
:109B0000F2E73C46EA88204600F09BFF2C602A687A
:109B1000EB8802EB0308EC68AB681B881F44A7EBDB
:109B20000807BFB20FB31CB3E688BE4228BF3E464B
:109B300032462168404600F077FFEB883344EB80E3
:109B4000B044BF1BBFB2236833442360E3889B1B30
:109B5000E380E388002BE5D1E368EB602046FFF764
:109B6000C0FCEC68002CF4D1DCE70CB12546B7E76B
:109B70004846BDE8F8830000002830D030B40446E1
:109B8000002A2ED0B3B113F0030F2CD12260E18054
:109B900021819DF80C00A072A180E3600298A06171
:109BA000636199B112F0030F02D022F00302043274
:109BB000012007E00029E9D003200EE09D181D6078
:109BC00001302B468142F9DC00221A60002020611E
:109BD000064B5A68146010345C6030BC7047032038
:109BE00070470320F9E70420F7E700BF800F00204B
:109BF00010B582B000240194049C0094FFF7BCFFD0
:109C000002B010BD30B583B0044601250195069D14
:109C10000095FFF7B1FF08B9E061206203B030BDE5
:109C200010B4036813F0030F02D023F003030433CE
:109C3000C468828803FB02428C4209D891420AD24E
:109C4000091BB1FBF3F203FB121131B9012000E053
:109C5000002010BC70470020FBE70020F9E738B572
:109C6000044698B100F09CFCE38853B165692A680A
:109C70006261013B9BB2E3802289934202D223813D
:109C800000E0002500F092FC284638BD0546FBE7C1
:109C900038B504460D4600F083FC63692B606561AE
:109CA000E3880133E38000F081FC002038BD78B107
:109CB000034679B110B5827A12F0010F04D0C4695D
:109CC00014B1026AA04702E01846FFF7E1FF10BD99
:109CD0000320704703207047024B00221A605B602C
:109CE000704700BF800F0020024B186808B1586809
:109CF00008387047700100200246094B1968084671
:109D000000E0806810B103889342FAD300B1704735
:109D100019B1034B5868083870470846F7E700BF89
:109D20007001002030B4114B1D682B46002401E067
:109D30001C469B681BB101881A889142F8D25CB11D
:109D4000A36883601BB1A060002030BC704700F1A5
:109D50000803064A5360F6E7856015B1034B1860A7
:109D6000F2E700F10803014A5360F7E770010020B1
:109D700030B583B01446079D0195069D009504F00B
:109D800017FA28B92046FFF7CDFF70B903B030BDF0
:109D9000FEF716FA00B101BE00200090094B1D68C5
:109DA000034602460146A847ECE7FEF709FA00B170
:109DB00001BE00200090034B1C680346024601468A
:109DC000A047E3E78C020020024B00221A605B6090
:109DD000704700BF7001002010B50C4630B9FFF786
:109DE00083FF10B12146FFF74CFB10BDFFF784FF46
:109DF000F7E710B50C4630B9FFF776FF10B1E1B2C6
:109E0000FFF756FB10BD01F108039BB2034498B263
:109E1000FFF772FFF2E7000000B583B0FFF7D4FF51
:109E2000064B0193702300931623054A0549064803
:109E3000FFF79EFF03B05DF804FB00BFC89402006B
:109E4000A40F0020880F0020B00F002008B5054B9C
:109E5000186800B908BD4FF0FF31034800F0E4FC7A
:109E6000F8E700BFB00500205019002008B5044BEA
:109E7000186800B908BD034800F074FCFAE700BF99
:109E8000B0050020501900200346002018605860DB
:109E90009860D8601861704710B50446FFF7D6FF88
:109EA00000B110BD034B1A6822611C60FFF7DEFF92
:109EB000F7E700BF5C19002010B5FFF7C7FF10B926
:109EC0001D4B1C6812E0FEF77BF900B101BE0023B8
:109ED0001A4619461846FEF77BFE00F09FFA2368E3
:109EE00062681344C01A00280DDC2469ACB1A36871
:109EF000002BF2D0E168204698470028EDD100F011
:109F00008DFA2060F1E7FEF75BF900B101BE002396
:109F10001A4619461846FEF75BFEFFF7A7FF00B981
:109F200010BDFEF74DF900B101BE00231A461946D7
:109F30001846FEF74DFE00BF5C19002008B5024828
:109F400000F006FC08BD00BF50190020037B012B68
:109F500001D00220704710B5044600F021FB0F4BE2
:109F60001B682BB1E17ADA7A914201D35B6CF8E796
:109F700053B19A6CA26463649A6C146044349C6418
:109F800000F014FB002010BD00236364034B5A68EB
:109F9000A264146044345C60F2E700BF80010020DA
:109FA00010B4C36B0133C363064B1868064B1C68BF
:109FB000A36B06490A68821A1344A363086010BCA5
:109FC000704700BFA8190020641900206019002004
:109FD000014B1868704700BF64190020014B1860DE
:109FE000704700BF6419002038B504460D46436C25
:109FF00083B1826C9A64A36C626C1A60022323732F
:10A0000000F00CFA28446063B5F1FF3F06D0184B0E
:10A010001B6811E0826C174B5A60ECE7637B43F0DE
:10A020000103637300236364114B5A68A2641460D4
:10A0300044345C6011E05B6C3BB15A7B12F0010F61
:10A0400003D15A6B121A002AF5DD43B19A6CA2644F
:10A0500063649A6C146044349C64002038BD00230F
:10A060006364034B5A68A264146044345C60F4E790
:10A07000780100208001002008B5037B022B21D14C
:10A08000C26962B113683BB383422FD01A46DB6CBE
:10A090008342FBD1DB6CD3640023C364C36101231F
:10A0A000037300234363437B23F001034373436C37
:10A0B000FBB1826C9A64836C426C1A60FFF746FFB6
:10A0C000002008BDFEF77CF800B101BE00231A464F
:10A0D00019461846FEF77CFDFEF772F800B101BE86
:10A0E00000231A4619461846FEF772FDDB6C136012
:10A0F000D2E7826C014B5A60DDE700BF7801002097
:10A1000070B500F08BF9054600F04AFA06460A4B96
:10A11000186802E0FFF7B0FF204640B1437B13F020
:10A12000010F04D1446C436BEB1A002BF2DA30467A
:10A1300000F03CFA70BD00BF7801002010B5044665
:10A1400000F037FA50B10E4B1B689BB15A7B12F0EE
:10A15000010F12D1586B001B0AD410BDFEF730F866
:10A1600000B101BE00231A4619461846FEF730FD1D
:10A170000020F2E74FF0FF30EFE74FF0FF30ECE761
:10A1800078010020014B1868704700BF8001002053
:10A1900038B5044600F004FA054634B1204600F014
:10A1A000F5F9284600F002FA38BDFFF7EBFF044648
:10A1B000F4E7000008B5037B012B00D008BD436C19
:10A1C0003BB1826C9A64836C426C1A60FFF7BEFEEE
:10A1D000F4E7826C014B5A60F5E700BF8001002074
:10A1E000002303E0034A40F8232001338B42F9DBCC
:10A1F000704700BFEFBEADDE10B500F0D1F9044BE3
:10A200001C78621C1A7000F0D1F9204610BD00BF06
:10A21000701900204368008903EB8000704700003C
:10A220002DE9F04204460D4617461E46BDF824901F
:10A230005022002100F020FC6761A661FFF7DCFFDF
:10A24000A0729DF81830E372012323732561002367
:10A25000636304F120063046FFF716FE054600282A
:10A2600039D1079BB3F1FF3F05D063623046FFF75A
:10A2700013FE054678BB49460898FFF7B1FF089BD7
:10A280006360A4F808902046FFF7C4FF01464A46E1
:10A29000204600F093F92060154B1B687BB1E17AF2
:10A2A000DA7A914201D01B6CF8E7FDF789FF00B123
:10A2B00001BE00231A4619461846FEF789FC23649E
:10A2C0000B4B5A68146004F140025A602046FFF7B5
:10A2D0003DFE054610B12846BDE8F082FEF738FD88
:10A2E00008B90546F7E70020FFF752FFF3E700BF84
:10A2F0006819002008B58646C37A0B70837A4B70C4
:10A30000037B8B704368B0F808C003EB8C0C00E053
:10A310000433634503D2124A18689042F8D0ACEB7C
:10A32000030CCCF38F0CA1F804C0BEF80830CB802E
:10A33000DEF83C308B60DEF83830CB60DEF8203061
:10A340000B61DEF8242013444B610846002300F81B
:10A35000183F1F22DEF8101000F0C2FB08BD00BF3E
:10A36000EFBEADDE30B484B0C40900940023019385
:10A3700000F07F0341F6846000FB03F3029348681A
:10A380000D68641940F100001460506089680B4446
:10A39000936008498B4209DD013440F100001460EC
:10A3A0005060A3F57423A3F51073936004B030BC20
:10A3B000704700BF3F420F0070B5041E0DDB00F078
:10A3C000EFF8054613490A68A3180B6093EA020FD9
:10A3D0000DD4284600F0EAF870BDFDF7F1FE00B19B
:10A3E00001BE00231A4619461846FEF7F1FB0A4E35
:10A3F000314651F8084B1C1B0A462046FFF7B2FFB6
:10A4000006F118010A462046FFF7ACFF014B1B6816
:10A410003360DEE7A819002078190020014B186886
:10A42000704700BFA819002010B5041E02DB002CE5
:10A430000ADC10BDFDF7C4FE00B101BE00231A46C0
:10A4400019461846FEF7C4FBFEF782FC20B9084AFD
:10A45000136823441360ECE72046FFF7ADFFFEF7D7
:10A46000D1FDFFF74DFE0020FFF792FEE1E700BFB0
:10A47000A819002000B9704738B5044600F090F8DC
:10A480000546FFF7A5FD2146FFF7AEFD284600F083
:10A490008DF80020FFF77CFE38BD000070B5054642
:10A4A0000C4600F07DF8064645B1FFF7B7FF0849B6
:10A4B00051F8183B2A46C01AFFF754FF14B1044B59
:10A4C000986A2060304600F071F8002070BD00BF2F
:10A4D00078190020F0B585B0064600F061F807460F
:10A4E0000A4D6C4605F108030FCB84E80F002D6878
:10A4F000FFF794FF451B384600F058F832462146D6
:10A500002846FFF72FFF05B0F0BD00BF78190020E7
:10A5100000B585B06846FFF7DDFF009A01994B0151
:10A5200043EAD2634FEA421EBEEB020E63EB010C1C
:10A530004FEA4C2040EADE504FEA4E239B1841EB95
:10A54000000C4FEA8C1E4EEA936E9801C01A6EEB17
:10A550000C0E801841EB0E01029BC01841EBE37119
:10A5600005B05DF804FB38B50D46410EC4014FF44B
:10A570007A72002320461EF051FD2860002038BD6D
:10A58000FEE708B50120FFF74FFF08BD08B5FFF74C
:10A5900007FD024B4FF080525A6008BD00ED00E00D
:10A5A000EFF3108000F0010072B6704700B962B698
:10A5B0007047EFF3108000F00100704770B5064659
:10A5C0000C46A1F14005092303E0002245F82320B1
:10A5D00001330C2BF9DD284600F0A0F94FF0807311
:10A5E00044F8043C736944F8083CB36944F8203CDF
:10A5F000024B44F80C3C284670BD00BF81A500000A
:10A6000008B5044A536943F010035361FEF7A6FBF3
:10A6100008BD00BF00ED00E070B5EFF3058414B98C
:10A620004FF0000C0AE0072034E00CF1604E0EF50C
:10A63000614EFF248EF800430CF1010CBCF1EF0FCA
:10A64000F3D96FF00D0C0AE04FFA8CFE144CA4689D
:10A650000EF1100E134D44F82E500CF1010CBCF10C
:10A66000250FF1DD0E4CA5680F4EEE62A5680F4E6A
:10A67000AE63A5680E4EEE63E02584F822502025D7
:10A68000E577EFF3148414F0010F04D0DFF824C051
:10A6900000DF002070BDFFF7B3FF0020FAE700BF26
:10A6A00000ED00E09FA9000023A9000069A90000B7
:10A6B00093A9000001A6000010B5FFF763FD044652
:10A6C000FFF78CFC2368203383F309880621802060
:10A6D0001BF080FB034B01221A602046FFF756FF58
:10A6E000A06910BDB005002010B5164800680438F8
:10A6F00000F00AF9EFF3058404BBEFF3148C0CF0BF
:10A70000030CBCF1020F0FD004D8BCF1010F10D81C
:10A71000082012E0BCF1030F0BD10B4C246814F09D
:10A72000010F06D1082008E0074C246814F0010F3F
:10A7300006D1DFF818C000DF002010BD0720FCE7BD
:10A740000820FAE7100F0020AC190020B9A600007D
:10A75000034628B100205871D8809860186070476F
:10A7600003207047F8B52F4B1B68002B51D00446CF
:10A77000002850D0FFF72CFC0546E388002B4CD076
:10A78000A26882424BD1012B03D0013BE380002021
:10A7900040E0FFF705FF0746E388013BE380EA7AE4
:10A7A00063799A421DD1266806B3F36903B3304634
:10A7B000FFF762FC0123E380F37A6371A660B37B49
:10A7C0000133B373AB7B013BAB73FFF7DBFC044698
:10A7D000854217D001253846FFF7E8FEA5B90020CD
:10A7E00018E0EB722846FFF7E5FCDCE7A660E9E736
:10A7F000FDF7E6FC00B101BE00231A4619461846D3
:10A80000FEF7E6F90025E6E72046FFF7C1FC002049
:10A8100000E00920F8BD0320FCE70520FAE7052049
:10A82000F8E700BFB0050020F8B5364B1B68002BD9
:10A8300063D005460E46002861D0FFF7B1FE0746FB
:10A84000FFF7C6FB0446EA88A2B1AB6883421ED07C
:10A8500026B3D97AC27A914225D8286868B30346CC
:10A8600000212BB394F80BC0DA7A944520D3194613
:10A87000DB6CF6E7A860C37A6B71837B013383736B
:10A880000123EB803846FFF791FE002032E00132D1
:10A89000EA803846FFF78AFE00202BE03846FFF7B3
:10A8A00085FE062026E0DA72A868FFF783FCD4E76D
:10A8B00019B1CB6CE364CC6401E0E0642C60E56129
:10A8C000637B43F00403637331462046FFF78CFB40
:10A8D0003846FFF76BFE0020FFF75AFCFFF760FEDB
:10A8E000637B23F004036373FFF760FEAB68A3424E
:10A8F00001D00620F8BD0020FCE70920FAE703207C
:10A90000F8E700BFB005002080F309882B480078E5
:10A91000023080F31488BFF36F8F704780E8F00F28
:10A920007047EFF30980816911F8021C51B990E872
:10A930000F1010B5E047BDE81040EFF3098C8CE82C
:10A940000700704710B51E4A1268914209D81D4C85
:10A9500054F8214090E80F10A047EFF3098C8CE8E1
:10A960000F00BDE810407047174B1A68174B196865
:10A97000914208BF7047EFF3098C2CE9F00FC1F842
:10A9800000C01A60D2F800C0BCE8F00F8CF3098850
:10A99000704710B5FFF7F5FDBDE8104070471EF099
:10A9A000040F0CBFEFF30883EFF309832DE9F84F91
:10A9B0006846FEF72FF9BDE8F84F7047AC19002044
:10A9C00000000000FCFFFFFF800100206419002050
:10A9D00008B5024800F09AF8400808BDB0190020F8
:10A9E00070B44FF0000522F0030605E043594C59BE
:10A9F000A34204D105F10405B542F7D10DE01BBA1D
:10AA000024BA1B1B8CBF01234FF0FF3309E0435DC9
:10AA10004C5D1B1B05D105F101059542F7D14FF0A7
:10AA20000003184670BC704701E08B588350043A0D
:10AA3000FBD502F1040201E08B5C8354013AFBD5A3
:10AA4000704781420CD81144831810E011F8012B93
:10AA500003F8012B624602F1FF3C002AF6D1704751
:10AA60000346F8E711F8012D03F8012D624602F1C3
:10AA7000FF3C002AF6D1704710B48446C9B241EABF
:10AA8000012141EA01411CEB020303242340D31AB4
:10AA90000ED402E0013A0CF802109A42FAD101E019
:10AAA0004CF80210043AFBD5043201E00CF8021015
:10AAB000013AFBD510BC704784469CF800200CF18D
:10AAC000010C0B780131D01A01D1002AF5D1704761
:10AAD000034600E001331A78002AFBD1181A7047A8
:10AAE00070B506460C461546FFF7F2FF30442B467C
:10AAF000013D3BB1214611F8013B00F8013B13B188
:10AB00000C46F4E70370304670BD0000024603882F
:10AB1000418809045B18B0F804C04CF1000C0948E6
:10AB2000052103FB01F100FB0C11A3FB00300B33EB
:10AB300041EB00011380180C40EA014050809180E5
:10AB4000704700BF6DE6ECDE38B505460C4608469A
:10AB5000FFF7BEFF02462146284619F050FB38BDDC
:10AB600008B5014600231A460248006803F0B6FF04
:10AB700008BD00BF0455002030B583B000244FF05D
:10AB8000FF3500E00134012C10DC00231A46694631
:10AB9000204603F0A3FF0028F4DB30B9204604F080
:10ABA00040FA0028EED12546ECE72546002D02DAD2
:10ABB000284603B030BD284601F0CDFF0546F7E733
:10ABC00070B582B00446FFF7D7FF002819DB01A952
:10ABD000C0B201F007FFC0B920220021019801F0A6
:10ABE00081FF054698B90B492046FFF7ADFF0646A1
:10ABF00000220023204619F0D3FA064302D0022592
:10AC000000E00225284602B070BD0325FAE70325BF
:10AC1000F8E700BFD094020008B5084B1B781BB1C1
:10AC2000074805F045F908BDFDF7CAFA00B101BEB5
:10AC300000231A4619461846FDF7CAFF641E002075
:10AC40008801002000B583B002460846536853B11E
:10AC50005188019300915378127807491BF068FFDF
:10AC600003B05DF804FB53880093537812780349CE
:10AC70001BF05EFFF4E700BFD4940200E4940200EE
:10AC800018B108B5FEF737FC08BD704720B108B50C
:10AC900019F0F6F9002008BD0320704728B108B567
:10ACA000002219F0B1F9002008BD0320704760B1FF
:10ACB00038B505468468208A884208D32046FEF7C6
:10ACC000D3FD30B9238A6B6038BD03207047032061
:10ACD000FAE70220F8E728B108B5018A4942FEF7F1
