:1000000000000120717B0000997B00009B7B0000B9
:100010009D7B00009F7B0000A17B00000000000092
:10002000000000000000000000000000A37B0000B2
:10003000A57B000000000000A77B0000A97B00005A
:10004000AB7B0000AB7B0000E91E0000AB7B000037
:10005000AB7B0000AB7B0000AB7B0000AB7B000008
:10006000F97A0000112C0000AB7B0000AB7B000094
:10007000AB7B0000AB7B0000AB7B0000AD2300003E
:10008000AB7B0000AB7B0000AB7B0000AB7B0000D8
:10009000AB7B0000AB7B0000AB7B0000AB7B0000C8
:1000A000AB7B0000AB7B0000AB7B0000AB7B0000B8
:1000B000AB7B0000AB7B00000000000000000000F4
:1000C000AB7B0000AB7B0000AB7B0000AB7B000098
:1000D000AB7B0000AB7B0000AB7B000000000000AE
:1000E0000000000000000000000000000000000010
:1000F0000000000000000000000000000000000000
:1001000000000000000000000000000000000000EF
:1001100000000000000000000000000000000000DF
:1001200000000000000000000000000000000000CF
:1001300000000000000000000000000000000000BF
:1001400000000000000000000000000000000000AF
:10015000000000000000000000000000000000009F
:10016000000000000000000000000000000000008F
:10017000000000000000000000000000000000007F
:10018000000000000000000000000000000000006F
:10019000000000000000000000000000000000005F
:1001A000000000000000000000000000000000004F
:1001B000000000000000000000000000000000003F
:1001C000000000000000000000000000000000002F
:1001D000000000000000000000000000000000001F
:1001E000000000000000000000000000000000000F
:1001F00000000000000000000000000000000000FF
:100200000348044B834202D0034B03B118477047A5
:10021000AC070020AC070020000000000548064B9A
:100220001B1AD90F01EBA301491002D0034B03B1F4
:1002300018477047AC070020AC0700200000000002
:1002400010B5064C237843B9FFF7DAFF044B13B11E
:100250000448AFF300800123237010BDAC070020D9
:10026000000000000CB7000008B5054B1BB10549A4
:100270000548AFF30080BDE80840FFF7CFBF00BFDF
:1002800000000000B00700200CB70000A3F5803A82
:10029000704700BF174B002B08BF134B9D46FFF75D
:1002A000F5FF00218B460F461348144A121A09F035
:1002B00021FA0E4B002B00D098470D4B002B00D09D
:1002C00098470020002104000D000D48002802D0AE
:1002D0000C48AFF3008008F00BFB2000290003F06E
:1002E0004BFB08F0F3FA00BF00000800000000001C
:1002F0000000000000000120AC070020801000205A
:10030000000000000000000080B483B000AF7860FF
:100310004FF0A04318460C37BD465DF8047B70478C
:1003200080B584B000AF7860084611461A4603468F
:10033000FB700B46BB7013467B703B1D1846FFF7E6
:10034000E3FFF860FA78BB785B001A437B789B0088
:100350001A433B7E1B0242EA03013B7F1B047A687F
:100360001943FB6802F5E07243F8221000BF103712
:10037000BD4680BD80B584B002AF78600023019394
:10038000002300930023012201217868FFF7C8FFB2
:1003900000BF0837BD4680BD80B584B000AF78602F
:1003A0003B1D1846FFF7B0FFF8607B68012202FA98
:1003B00003F31946F86800F04FF800BF1037BD4648
:1003C00080BD80B584B000AF78603B1D1846FFF754
:1003D0009BFFF8607B68012202FA03F31946F86874
:1003E00000F049F800BF1037BD4680BD80B584B02D
:1003F00000AF78603B1D1846FFF786FFF860FB688A
:10040000D3F80435BB60BB68DA437B68012101FA8D
:1004100003F31A40FB68C3F808257B6801229A4061
:10042000BB681A40FB68C3F80C2500BF1037BD46F7
:1004300080BD80B582B000AF786039603B68002B2A
:1004400003D17868FFF7BDFF02E07868FFF7A4FFEB
:1004500000BF0837BD4680BD80B483B000AF786070
:1004600039607B683A68C3F8082500BF0C37BD4681
:100470005DF8047B704780B483B000AF786039606A
:100480007B683A68C3F80C2500BF0C37BD465DF8A1
:10049000047B704780B582B000AF7860054A7B6806
:1004A00013441B7801211846FFF7C3FF00BF08372C
:1004B000BD4680BDF8A4000080B582B000AF002327
:1004C0007B6005E07868FFF7E5FF7B6801337B60C0
:1004D0007B68032BF6D900BF00BF0837BD4680BD3F
:1004E00080B582B000AF7860054A7B6813441B7802
:1004F0001846FFF77BFF00BF0837BD4680BD00BF31
:10050000F8A4000080B582B000AF00237B6009E052
:10051000094A7B6813441B781846FFF72BFF7B685A
:1005200001337B607B68032BF2D9FFF7C5FF00BF67
:100530000837BD4680BD00BFF8A4000080B586B076
:1005400000AF78600023BB8100233B617B687B6147
:1005500007F10C031A46002144F2010000F01CF8D8
:1005600000BF1837BD4680BD80B400AFBFF34F8FCA
:1005700000BF074BDB6803F4E0620549054B1343FA
:10058000CB60BFF34F8F00BF00BF00BF00BFFBE7D2
:1005900000ED00E00400FA0580B584B000AFF8601B
:1005A000B9607A60064B1B6803F00103002B00D092
:1005B000FFDEFFF7D9FF00BF1037BD4680BD00BF8B
:1005C000F0ED00E080B485B000AF78607B689B6898
:1005D000FB607B68DA68FB68D31A18461437BD469F
:1005E0005DF8047B704780B483B000AF78600B4641
:1005F000FB707B681A687B68DB68796889880B40C8
:100600001344FA781A707B68DB685A1C7B68DA60DE
:1006100000BF0C37BD465DF8047B704780B485B0E1
:1006200000AFF8600B467A607B81FB681A68FB6854
:1006300099687B890B44F96889880B4013441A78C0
:100640007B681A7000BF1437BD465DF8047B7047A5
:1006500080B582B000AF786039603A680021786870
:10066000FFF7DCFF7B689B685A1C7B689A6000BFC1
:100670000837BD4680BD80B485B000AFF860B96072
:100680001346FB80BB68002B01D10E2319E0FB88C9
:10069000002B05D0FB885A1EFB881340002B01D08D
:1006A00009230EE0FB68BA681A60FB88013B9AB226
:1006B000FB689A80FB6800229A60FB680022DA607F
:1006C000002318461437BD465DF8047B704780B59B
:1006D00082B000AF78600B46FB707868FFF772FF5E
:1006E00002467B689B889A4206D8FB781946786850
:1006F000FFF779FF002300E0042318460837BD46C2
:1007000080BD80B582B000AF786039607868FFF74F
:1007100059FF0346002B05D039687868FFF798FF2A
:10072000002300E0052318460837BD4680BD80B48D
:1007300085B000AF78607B689B68FB607B68DA6897
:10074000FB68D31A18461437BD465DF8047B704722
:1007500080B586B000AF786039607B681B78022B6B
:100760003BD0022B60DC002B48D0012B5CD17B6896
:100770005B681B7819462F48FFF7A9FF78617B69F2
:10078000002B0AD001233B737B693B612A4B1B681A
:1007900007F10C02104698470DE02648FFF7C7FF07
:1007A0000346002B07D000233B73234B1B6807F144
:1007B0000C02104698471F48FFF7B9FF03461D4A31
:1007C0009288934205D801221C491D4801F0F8F88F
:1007D0002BE01C4B01221A7027E002233B737B683D
:1007E000DB683B6101221549154801F0E9F8124B1D
:1007F0001B6807F10C021046984716E0124913488F
:10080000FFF77FFF0346002B05D101220E490C485C
:1008100000F0FCFE09E003233B73074B1B6807F164
:100820000C021046984700E000BF00BF1837BD46D5
:1008300080BD00BFD4070020C8070020D0070020DB
:1008400000000020D1070020CC070020E407002092
:10085000B0B58EB000AFF860B9607A60FB703F4A07
:100860007B681360BB68002B01D1072372E0BB6873
:100870001968BB685B689BB21A463948FFF7FBFEF4
:1008800078637B6B002B01D07B6B63E0BB6899685E
:10089000BB68DB689BB21A463248FFF7ECFE786310
:1008A0007B6B002B01D07B6B54E02F4B07F11404C2
:1008B0001D460FCD0FC495E80F0084E80F00FB68BC
:1008C0005B69FB62FB681B7C002B14BF01230023C8
:1008D000DBB287F82830FB7887F83030FB685B7C28
:1008E000002B01D00E2300E0002387F82930FB689D
:1008F000DB68FB61FB689B683B62FB681B68BB6154
:10090000FB685B687B6107F11403184A19461848B5
:1009100000F046FD78637B6B002B01D07B6B19E008
:10092000144B00221A70FB681B68B3F1FF3F10D014
:1009300097F8313083F00103DBB2002B02D00C4872
:1009400001F0E0F801220C49094801F039F80346AA
:1009500000E0002318463837BD46B0BDC807002068
:10096000D4070020E4070020FCA400005107000089
:1009700000000020D1070020D007002080B586B0FD
:1009800000AF7860104B1B78FB7579680F48FFF754
:10099000B8FE3861FB7D002B10D00B4B00221A7083
:1009A00001220B490B4801F00BF8F860FB68BB60B3
:1009B000BB68002B02D0B868FFF7C0FD3B69184642
:1009C0001837BD4680BD00BFD1070020D4070020E6
:1009D000D00700200000002080B584B000AF03469F
:1009E000FB71FB7919461148FFF771FEF860FB684F
:1009F000002B15D10E4800F057FE034683F001038B
:100A0000DBB2002B0CD00B490848FFF77AFE0346F7
:100A1000002B05D101220749054800F0F7FDF860D9
:100A2000FB6818461037BD4680BD00BFE4070020B4
:100A300000000020CC07002080B586B000AFF86031
:100A4000B9607A6000237B6109E0BB685A1CBA6018
:100A50001B781846FFF7C0FF7B6901337B617A6919
:100A60007B689A42F1DB7B6818461837BD4680BD2B
:100A700080B584B000AFF860B9607A6000BFB86834
:100A8000FFF77CFF0346052BF9D0012318461037EA
:100A9000BD4680BD80B483B000AF0346FB71FB79D7
:100AA00003F01F02074997F907305B09012000FA9C
:100AB00002F241F8232000BF0C37BD465DF8047BED
:100AC000704700BF00E100E080B483B000AF034690
:100AD000FB71FB7903F01F02074997F907305B09A7
:100AE000012000FA02F2603341F8232000BF0C37E6
:100AF000BD465DF8047B704700E100E080B483B040
:100B000000AF03463960FB7197F90730002B0BDA11
:100B10003B68DAB20C49FB7903F00F03043B520146
:100B2000D2B20B441A7609E03B68DAB2074997F96A
:100B300007305201D2B20B4483F8002300BF0C37B8
:100B4000BD465DF8047B704700ED00E000E100E089
:100B500080B582B000AF03460A46FB711346BB71F5
:100B6000BA7997F9073011461846FFF7C7FF97F98A
:100B700007301846FFF7A8FF97F907301846FFF728
:100B800089FF00BF0837BD4680BD80B485B000AF87
:100B900078600B467B807B887A68134400221A6059
:100BA0007B887A6813441B68FB60FB6800BF1437BE
:100BB000BD465DF8047B704780B483B000AF7860B9
:100BC0000B467B807B887A6813441B68002B14BF1C
:100BD00001230023DBB218460C37BD465DF8047BC9
:100BE000704780B483B000AF786039607B683A6842
:100BF000C3F8042300BF0C37BD465DF8047B704783
:100C000080B483B000AF786039607B68D3F8042388
:100C10003B681340002B14BF01230023DBB21846AE
:100C20000C37BD465DF8047B704780B483B000AFDD
:100C3000786039607B683A68C3F8082300BF0C37D6
:100C4000BD465DF8047B704780B485B000AF786026
:100C50007B68D3F88034FB607B68FA68C3F8802433
:100C6000FB6818461437BD465DF8047B704780B4B6
:100C700083B000AF78607B680422C3F8002500BF12
:100C80000C37BD465DF8047B704780B485B000AF7B
:100C9000F860B9607A60FB687A68C3F81425FB686D
:100CA000BA68C3F80C2500BF1437BD465DF8047B55
:100CB000704780B485B000AFF860B9607A60FB68B7
:100CC000BA68C3F80825FB687A68C3F8102500BF26
:100CD0001437BD465DF8047B704780B483B000AF25
:100CE00078607B68D3F81835DBB218460C37BD4600
:100CF0005DF8047B704780B483B000AF78600B462A
:100D0000FB70FA787B68C3F81C2500BF0C37BD4622
:100D10005DF8047B704780B483B000AF78600B4609
:100D2000FB70FB787A68134401221A6000BF0C370D
:100D3000BD465DF8047B704780B483B000AF786037
:100D40000B46FB701346BB70FA78BB781343DBB2DB
:100D50001A467B68C3F86C2500BF0C37BD465DF8AA
:100D6000047B704780B483B000AF786039607B68E3
:100D70003A68C3F8242500BF0C37BD465DF8047BF4
:100D8000704780B485B000AF78600B467B807B886D
:100D90007A68134400221A607B887A6813441B68BF
:100DA000FB60FB6800BF1437BD465DF8047B7047ED
:100DB00080B483B000AF78600B467B807B887A6814
:100DC00013441B68002B14BF01230023DBB2184619
:100DD0000C37BD465DF8047B704780B483B000AF2C
:100DE000786039607B68D3F800223B681A437B68DF
:100DF000C3F8002200BF0C37BD465DF8047B704786
:100E000080B483B000AF786039607B68D3F800228B
:100E10003B68DB431A407B68C3F8002200BF0C37F5
:100E2000BD465DF8047B704780B483B000AF786046
:100E300039607B683A68C3F8042300BF0C37BD46AD
:100E40005DF8047B704780B483B000AF7860396090
:100E50007B683A68C3F8082300BF0C37BD465DF8CD
:100E6000047B704780B485B000AF78607B68D3F8AE
:100E70008034FB607B68FA68C3F88024FB681846FE
:100E80001437BD465DF8047B704780B483B000AF73
:100E900078607B680822C3F8002500BF0C37BD4688
:100EA0005DF8047B704780B485B000AFF860B9602E
:100EB0007A60FB68BA68C3F80C25FB687A68C3F8E7
:100EC000142500BF1437BD465DF8047B704780B41D
:100ED00085B000AFF860B9607A60FB68BA68C3F8A3
:100EE0000825FB687A68C3F8102500BF1437BD4693
:100EF0005DF8047B704780B483B000AF78600B4628
:100F0000FB70FB787A68134401221A6000BF0C372B
:100F1000BD465DF8047B704780B483B000AF786055
:100F20000B46FB701346BB70FA78BB781343DBB2F9
:100F30001A467B68C3F86C2500BF0C37BD465DF8C8
:100F4000047B704780B483B000AF786039607B6801
:100F50003A68C3F8242500BF0C37BD465DF8047B12
:100F6000704780B485B000AFF860B9601346FB717C
:100F7000BA68FB68C3F84425FA79FB68C3F84825CA
:100F800000BF1437BD465DF8047B704780B483B062
:100F900000AF78607B68D3F84C3518460C37BD46F7
:100FA0005DF8047B704780B485B000AFF860B9602D
:100FB0001346FB71BA68FB68C3F83425FA79FB68FD
:100FC000C3F8382500BF1437BD465DF8047B704771
:100FD00080B483B000AF78607B68D3F83C351846A6
:100FE0000C37BD465DF8047B704780B485B000AF18
:100FF00078607B681B0BFB7397F90F30184614372A
:10100000BD465DF8047B704780B483B000AF786064
:101010007B6803F06043B3F1005F0CBF0123002342
:10102000DBB218460C37BD465DF8047B704780B4D0
:1010300083B000AF78604FF0A04318460C37BD4630
:101040005DF8047B704780B584B000AF78600846D7
:1010500011461A460346FB700B46BB7013467B7065
:101060003B1D1846FFF7E3FFF860FA78BB785B009A
:101070001A437B789B001A433B7E1B0242EA030122
:101080003B7F1B047A681943FB6802F5E07243F862
:10109000221000BF1037BD4680BD80B584B002AFBE
:1010A0007860002301930023009300230122012193
:1010B0007868FFF7C8FF00BF0837BD4680BD80B520
:1010C00084B002AF78600B46FB70FB78002201927F
:1010D00000220092002200217868FFF7B4FF00BFD1
:1010E0000837BD4680BD80B584B000AF78603B1D39
:1010F0001846FFF79CFFF8607B68012202FA03F3B1
:101100001946F86800F004F800BF1037BD4680BDEE
:1011100080B483B000AF786039607B683A68C3F808
:10112000082500BF0C37BD465DF8047B7047000002
:1011300080B582B000AF786039603B681B68B3F15E
:10114000FF3F09D03B681B681846FFF7CCFF3B68A0
:101150001B681846FFF7A1FF3B685B68B3F1FF3FD0
:1011600005D03B685B6800211846FFF7A8FF7B6845
:101170001B79474A5B0113441C331B78002B41D079
:101180007B681A683B689B6919461046FFF7DAFED0
:101190007B6818683B68597D3B681B7D1A46FFF7E2
:1011A000BBFE7B6818683B6819683B685B681A4639
:1011B000FFF779FE3B681B7D012B64D13B689B6880
:1011C000B3F1FF3F05D03B689B6800211846FFF74D
:1011D00076FF3B68DB68B3F1FF3F09D03B68DB6813
:1011E0001846FFF780FF3B68DB681846FFF755FF9E
:1011F0007B6818683B68D9683B689B681A46FFF7AC
:1012000066FE40E07B681A683B689B691946104699
:10121000FFF7A8FD7B6818683B68597D3B681B7D1C
:101220001A46FFF789FD7B6818683B6819683B68B8
:101230005B681A46FFF729FD3B681B7D012B22D115
:101240003B689B68B3F1FF3F05D03B689B6800217A
:101250001846FFF734FF3B68DB68B3F1FF3F09D066
:101260003B68DB681846FFF73EFF3B68DB681846C3
:10127000FFF713FF7B6818683B68D9683B689B6879
:101280001A46FFF716FD00BF0837BD4680BD00BFF8
:10129000F407002080B582B000AF78600B46FB7089
:1012A0007B681B792C4A5B0113441C331B78002B91
:1012B0002ED07B681B684FF488711846FFF761FDDC
:1012C0007B681B684FF490711846FFF75AFD7B68E6
:1012D0001B684FF492711846FFF753FD7B681B683B
:1012E0004FF4A2711846FFF74CFD7B681B681B4941
:1012F0001846FFF799FD7B681B681846FFF775FED7
:1013000003461A46FB7819461046FFF721FC1FE0FA
:101310007B681B684FF48E711846FFF736FC7B68BC
:101320001B684FF4A2711846FFF72FFC7B681B68FF
:101330000B491846FFF755FC7B681B681846FFF7FA
:1013400054FE03461A46FB7819461046FFF700FC88
:1013500000BF0837BD4680BDF4070020100302001F
:101360008000020080B582B000AF78607B681B7996
:101370000A4A5B0113441C331B78002B05D07B68A1
:101380001B681846FFF781FD04E07B681B68184660
:10139000FFF76DFC00BF0837BD4680BDF407002095
:1013A00080B586B000AFF860B9607A60FB681B79E1
:1013B0005B011E4A13447B6100233B617B69DB7E3A
:1013C000002B03D008233B613B692BE0BB685A7FAD
:1013D0007B691A77B968F868FFF7AAFE7B697A68B3
:1013E0005A60BB681A697B691A607B695B68002B6D
:1013F00005D0BB681B7F1946F868FFF74BFFF868FC
:10140000FFF7B0FF7B690022DA757B6900221A764C
:101410007B6900229A757B690122DA767B6900225A
:101420009A763B6918461837BD4680BDF407002000
:1014300080B584B000AF786039604FF48E71786801
:10144000FFF7A3FB3B689B683A68928A92B2134409
:101450001B78FB733B689B8A9BB201339AB23B6853
:101460009A82FB7B19467868FFF745FC00BF10376E
:10147000BD4680BD80B584B000AF78607B681B79C5
:101480005B01344A1344BB600023FB607B681B682C
:101490004FF48E711846FFF778FB7B681B680821B4
:1014A0001846FFF738FC7B681B68B9681846FFF7D9
:1014B000BFFFBB685B68002B47D11FE000BF7B68A4
:1014C0001B684FF48E711846FFF776FB034683F0D6
:1014D0000103DBB2002B05D0BB689B8A9BB2B3F53E
:1014E000807FECD1BB689B8A9BB2B3F5807F05D02F
:1014F0007B681B68B9681846FFF79AFFBB689B8A30
:101500009BB2BA68927D9342D8D3BB689B8A9BB248
:10151000B3F5807F02D10F23FB6013E000BF7B682F
:101520001B684FF48E711846FFF746FB034683F0A5
:101530000103DBB2002BF2D17B681B680C2118463B
:10154000FFF7E9FBBB6800229A75FB681846103765
:10155000BD4680BDF407002080B586B000AF78603E
:101560007B681B795B01284A13443B6100237B6144
:101570007B681B684FF490711846FFF702FC7B688C
:101580001B684FF4AC711846FFF7FBFB7B681868CB
:101590003B6999683B699B7D1A46FFF7E2FC7B68D3
:1015A0001B6808211846FFF7A6FC3B695B68002B07
:1015B00025D17B681B684FF490711846FFF7F8FB44
:1015C0000346FB737B681B684FF4AC711846FFF74A
:1015D000EFFB0346BB73FB7B83F00103DBB2002B05
:1015E00005D0BB7B83F00103DBB2002BE1D1BB7BD9
:1015F000002B01D00F237B613B6900229A757B6928
:1016000018461837BD4680BDF407002080B586B067
:1016100000AFF860B9601346FB71FB681B795B0192
:10162000204A13447B61FB681B791E4A5B0113440B
:101630001C331B78002B0CD0B868FFF7E5FC034681
:1016400083F00103DBB2002B03D010233B613B6925
:1016500024E0F86800F028F80346002B03D011239B
:101660003B613B691AE07B69FA799A757B69BA68D4
:101670009A607B6900229A82FB681B79094A5B01A8
:1016800013441C331B78002B04D0F868FFF764FF69
:10169000034603E0F868FFF7EDFE034618461837E7
:1016A000BD4680BDF407002080B483B000AF7860F1
:1016B0007B681B79074A5B01134416331B78002BA8
:1016C00014BF01230023DBB218460C37BD465DF87A
:1016D000047B7047F407002080B582B000AF7860CB
:1016E0007B681B684FF492711846FFF74EFA7B68CF
:1016F0001B684FF484711846FFF747FA7B681B6834
:1017000000211846FFF707FB00BF0837BD4680BD24
:1017100090B583B000AF786039603B68DB7D002B0B
:1017200008D14FF484717868FFF72FFA7868FFF7D3
:10173000D4FA16E04FF484717868FFF726FA3B6814
:10174000DB683A68527ED2B29C187868FFF7C5FA17
:10175000034623703B685B7EDBB20133DAB23B6841
:101760005A760C37BD4690BD80B588B000AFF860A2
:10177000B96011461A460B46FB711346BB71FB68F4
:101780001B795B01474A1344FB61FB699B7E83F035
:101790000103DBB2002B08D0BB7983F00103DBB27D
:1017A000002B02D0F868FFF797FFFB695B68002BFE
:1017B00069D1FB681B684FF4A2711846FFF7E5F981
:1017C000FB681B684FF492711846FFF7F5F9034662
:1017D000FB76FB681B684FF484711846FFF7ECF941
:1017E0000346BB76FB681B684FF4A2711846FFF7EF
:1017F000E3F903467B76BB7E83F00103DBB2002B6B
:101800000BD07B7E83F00103DBB2002B05D0FB7E87
:1018100083F00103DBB2002BD2D1FB7E002B0FD172
:101820007B7E002B0CD1FB681B68F9691846FFF71B
:101830006FFFFB69DA7DFB695B7EDBB29A42BFD842
:10184000FB690022DA75FB7E002B03D003237B614A
:101850007B6922E07B7E002B03D00F237B617B69B9
:101860001BE0FB699B7E002B06D0FB681B680021F8
:101870001846FFF750FA0DE0FB681B680421184674
:10188000FFF749FA06E0FB681B684FF40171184640
:10189000FFF7A7F900237B617B6918462037BD4617
:1018A00080BD00BFF407002080B586B000AFF860AF
:1018B000B96011461A460B46FB711346BB710023F3
:1018C0007B61FB681B684FF488711846FFF759FA73
:1018D000FB681B684FF4A2711846FFF752FAFB68C9
:1018E0001B68FA79B9681846FFF75DFBBB7983F08E
:1018F0000103DBB2002B06D0FB681B6800211846F1
:10190000FFF7F9FA05E0FB681B6820211846FFF78E
:1019100064FAFB681B79294A5B01134404331B6892
:10192000002B3FD1FB681B684FF488711846FFF706
:101930003FFA0346FB74FB681B684FF4A27118461C
:10194000FFF736FA0346BB74FB681B684FF49271CD
:101950001846FFF72DFA03467B74FB7C83F00103E6
:10196000DBB2002B0BD0BB7C83F00103DBB2002B7E
:1019700005D07B7C83F00103DBB2002BD2D1FB6866
:101980001B790E4A5B011344173300221A707B7CCB
:10199000002B01D003237B61BB7C002B09D00F23DC
:1019A0007B6106E0FB681B684FF404711846FFF783
:1019B0003BFA7B6918461837BD4680BDF407002006
:1019C00080B588B000AFF860B9601346FB71FB6862
:1019D0001B795B014A4A1344BB61FB681B79484A87
:1019E0005B0113441C331B78002B0CD0B868FFF745
:1019F0000BFB034683F00103DBB2002B03D0102363
:101A00007B617B6978E00023FB77BB695B68002B17
:101A100017D0FB681B793A4A5B0113441C331B78CF
:101A2000002B07D0FB681B684FF404711846FFF7C2
:101A30000AFA06E0FB681B684FF401711846FFF7CD
:101A4000F4F8BB69DB7D002B25D0BB691B7E002B26
:101A50001FD0BB695B68002B17D0FB681B79284A35
:101A60005B0113441C331B78002B07D0FB681B68F9
:101A70004FF404711846FFF7D7F906E0FB681B68BE
:101A80004FF401711846FFF7ACF811237B617B69B5
:101A900032E00123FB77FB7F83F00103DBB2002BF5
:101AA0000CD0BB69FA79DA75BB69BA68DA60BB69D0
:101AB00000225A76BB6900221A7605E0BB69BA6833
:101AC0001A61BB69FA791A76FB681B790C4A5B01CB
:101AD00013441C331B78002B07D0FB7FFA79B968BD
:101AE000F868FFF7E1FE034606E0FB7FFA79B96884
:101AF000F868FFF739FE034618462037BD4680BD1B
:101B0000F407002080B582B000AF78607B681B7955
:101B1000104A5B0113441C331B78002B16D17B68E1
:101B20001B790C4A5B0113441A331B7883F00103C1
:101B3000DBB2002B0AD07868FFF7CEFD7B681B79FB
:101B4000044A5B0113441A3301221A7000BF08379C
:101B5000BD4680BDF407002080B588B000AFF860B6
:101B60000B467A60FB7201233B74FB7A3B767B6801
:101B70007B61FB685B68FA68116807F11002104628
:101B8000984700BF2037BD4680BD80B586B000AF06
:101B900078600B46FB7000233B72FB783B747B68DC
:101BA0009B68FB607B6800229A757B685B687A683B
:101BB000116807F108021046984700BF1837BD4664
:101BC00080BD80B588B000AF786039604FF4007197
:101BD0007868FFF715F80346002B38D04FF4927160
:101BE0007868FEF7E9FF0346002B30D04FF492717E
:101BF0007868FEF7CAFF4FF401717868FFF715F8AF
:101C00003B689B7E83F00103DBB2002B03D00421F1
:101C10007868FFF780F802233B727868FFF714F8C2
:101C200003467B613B68DB7D3B743B68DB68FB60A4
:101C30003B680022DA753B6800221A763B685B68D5
:101C40003A68116807F108021046984754E00421E9
:101C50007868FEF7D5FF0346002B4DD04FF4847112
:101C60007868FEF7A9FF0346002B45D039687868ED
:101C7000FFF74EFD3B68DA7D3B685B7EDBB29A4244
:101C80003AD13B681B7E002B1AD03B68DB68FB61B6
:101C90003B685B7EFB763B681A7E3B68DA753B6887
:101CA0001A693B68DA603B6800221A763B680022BA
:101CB0005A76FB7EFA6919463868FFF74DFF1BE03C
:101CC0003B689B7E83F00103DBB2002B03D0042131
:101CD0007868FFF720F84FF401717868FEF7A5FFE8
:101CE0003B680022DA753B685B7ED9B23B68DB68F3
:101CF0001A463868FFF730FF4FF48E717868FEF7A8
:101D00005BFF0346002B1AD03B689B8A9BB23A6864
:101D1000927D934204D239687868FFF789FB0EE020
:101D20004FF48E717868FEF730FF3B689B7D002B87
:101D300005D03B689B7D19463868FFF726FF4FF4B6
:101D4000A2717868FEF738FF0346002B1CD04FF4D1
:101D5000A2717868FEF719FF3B689B7E002B03D0C9
:101D600000217868FEF7D7FF3B68DB7D002B0BD0A6
:101D70003B680022DA753B685B7ED9B23B68DB6862
:101D80001A463868FFF7E8FE00BF2037BD4680BD21
:101D900080B588B000AF786039604FF49271786890
:101DA000FFF706F80346002B23D04FF492717868B2
:101DB000FEF7E7FF02233B727868FFF753F803460C
:101DC0007B617868FFF704F90346DBB23B743B683C
:101DD000DB68FB603B680022DA753B6800221A76FC
:101DE0003B685B683A68116807F10802104698473B
:101DF0003DE04FF488717868FEF7DAFF0346002B68
:101E000035D04FF488717868FEF7BBFF7868FFF72C
:101E1000DFF80346FB773B68DB7DFA7F9A4226D1E9
:101E20003B681B7E002B18D03B68DB68BB61202120
:101E30007868FEF7E5FF3B681A7E3B68DA753B6819
:101E40001A693B68DA603B6800221A76FB7FBA6940
:101E500019463868FFF780FE09E03B680022DA7512
:101E60003B68DA68FB7F19463868FFF775FE4FF468
:101E7000A2717868FEF79CFF0346002B16D04FF442
:101E8000A2717868FEF77DFF3B68DB7D002B0DD0EB
:101E90003B680022DA757868FFF79AF80346D9B2F2
:101EA0003B68DB681A463868FFF756FE4FF49071BE
:101EB0007868FEF77DFF0346002B11D04FF4907138
:101EC0007868FEF75EFF3B689B7D002B08D0786842
:101ED000FFF75CF80346DBB219463868FFF755FE9A
:101EE00000BF2037BD4680BD80B500AF074B1B7FCC
:101EF000002B04D005490648FFF74AFF03E00349D9
:101F00000348FFF75EFE00BF80BD00BFF40700205E
:101F10000020004080B483B000AF0346FB71FB7922
:101F200003F01F02074997F907305B09012000FA07
:101F300002F241F8232000BF0C37BD465DF8047B58
:101F4000704700BF00E100E080B483B000AF0346FB
:101F5000FB71FB7903F01F02074997F907305B0912
:101F6000012000FA02F2603341F8232000BF0C3751
:101F7000BD465DF8047B704700E100E080B485B0A9
:101F800000AF7860254BFB607B68002B40D0244B72
:101F90001A68F9687B6800BF00BF00BF00BF00BFC0
:101FA00000BF00BF00BF8A422FD000BF00BF00BFEC
:101FB00000BF00BF00BF00BF00BF00BF00BF00BF29
:101FC00000BF00BF00BF00BF00BF00BF00BF00BF19
:101FD00000BF00BF00BF00BF00BF00BF00BF00BF09
:101FE00000BF00BF00BF00BF00BF00BF00BF00BFF9
:101FF00000BF00BF00BF00BF00BF00BF00BF00BFE9
:1020000000BF00BF00BF00BF00BF013BC3D17B606A
:1020100000BF1437BD465DF8047B70470024F40010
:102020004407002080B582B000AF78607B684FF431
:102030007A7202FB03F31846FFF7A0FF00BF0837D0
:10204000BD4680BD80B483B000AF0346FB71144B26
:102050000022C3F80821124B0222C3F80025104BBE
:10206000104AC3F814250E4B0F4AC3F80C250C4B2D
:102070000E4AC3F810250A4B0D4AC3F80825084B31
:102080000122C3F80022FB791B04054A43F0807348
:10209000C2F8043500BF0C37BD465DF8047B7047BD
:1020A00000F000401C0800202C0900202C0A002011
:1020B0001400002080B400AF0C4B0022C3F80025B0
:1020C0000A4B0222C3F80823094BD3F80035084A0B
:1020D00023F08073C2F80035054B4FF40032C3F88B
:1020E000082500BFBD465DF8047B704700F0004046
:1020F00000F0014080B400AF094B0022C3F8042176
:10210000074B01221A6000BF054BD3F80431002BA6
:10211000FAD000BF00BFBD465DF8047B704700BF2A
:1021200000F0004080B586B000AFC823FB710020EE
:10213000FFF788FF3F4AFB79537000237B610AE079
:102140007B69D9B23B4A7B69134403330A461A7050
:102150007B6901337B61FB797A699A42F0DBFFF797
:10216000C9FF00233B6108E0324A3B691344033353
:1021700042221A703B6901333B61FB793A699A420A
:10218000F2DB2D4B2D4AC3F80C252B4B294AC3F803
:102190001025294BD3F80435274A43F00103C2F830
:1021A0000435FFF7A7FF244BD3F80034012B03D1EC
:1021B000234806F0C1FB02E0224806F0BDFB0123E4
:1021C000FB730023BB6015E0FB7B1A49BA680A4425
:1021D000033212781146BA688A420CBF01220022EB
:1021E000D2B21340002B14BF01230023FB73BB6842
:1021F0000133BB60FB79BA689A42E5DBFB7B002BBD
:1022000003D0114806F098FB02E0104806F094FB5A
:10221000094BD3F80831002B06D00D4806F08CFB93
:10222000054B0022C3F80821FFF744FF00BF183711
:10223000BD4680BD2C09002000F000402C0A002083
:102240001CA5000038A5000054A5000070A50000E2
:1022500084A5000080B586B000AF3A601A460346F8
:10226000FB710B46BB7113467B711023FB73474A0E
:10227000FB7B537000237B6108E0444A7B69134475
:10228000033300221A707B6901337B61FB7B7A691F
:102290009A42F2DB3E4B0022C3F800223C4B002264
:1022A000C3F810213A4B01221A6100BF384BD3F812
:1022B0001031002BFAD0364B0022C3F810217B7965
:1022C000002B04D1324B0722C3F8002203E0304B2D
:1022D0000122C3F800222E4AFB79C2F80C352C4AA1
:1022E000BB79C2F810352A4A3B68C2F80835284B3A
:1022F000284AC3F81425264B274AC3F81825244B2F
:102300000322C3F83425BB79002B01D0032B02D163
:1023100000233B6101E001233B613B69DBB21846CE
:10232000FFF790FE1A4B1D4AC3F804257B79022B58
:102330001AD0022B1DDC002B02D0012B06D018E096
:10234000174B4FF08072C3F8002512E0144B154A6A
:10235000C3F89825124B144AC3F89C25104B4FF430
:102360000032C3F8042504E00F4B0222C3F8042313
:1023700000BF074B01221A607B79002B02D00A4B69
:1023800001221A6000BF1837BD4680BD2C0900200D
:102390000010004008011000FF0003032C0A002079
:1023A00000F0014004F1004000F0004080B500AFB3
:1023B000054B0022C3F804210A20FFF7DFFD024B82
:1023C00001221A6000BF80BD00F0004080B582B0DD
:1023D00000AF78607B681B78022B05D17B685B6857
:1023E0001846FEF7ABF808E07B681B78012B04D198
:1023F0007B685B681846FEF7A1F800BF0837BD464A
:1024000080BD000080B400AF0C4B01221A604FF079
:1024100080430022C3F800214FF0804301221A605C
:1024200000BF4FF08043D3F80031002BF9D000BF3C
:1024300000BFBD465DF8047B704700BF00D0004080
:1024400080B500AF6E4806F077FA6E4806F074FA71
:102450006D4806F071FA6D4806F06EFA6C4806F0A9
:102460006BFA6C4806F068FA6B4806F065FA6B4840
:1024700006F062FA6A4806F05FFA6A4806F05CFA0B
:10248000694806F059FA0A20FFF7CCFD674806F0C4
:1024900053FA674806F050FA664806F04DFA664867
:1024A00006F04AFA654806F047FA654806F044FA2D
:1024B000644806F041FA644806F03EFA634806F0C4
:1024C0003BFA634806F038FA0A20FFF7ABFD614893
:1024D00006F032FA604806F02FFA604806F02CFA4F
:1024E0005F4806F029FA5F4806F026FA5E4806F0D3
:1024F00023FA5E4806F020FA0A20FFF793FD5C48B5
:1025000006F01AFA5B4806F017FA5B4806F014FA70
:102510005A4806F011FA0A20FFF784FD584806F0E1
:102520000BFA4D4806F008FA4C4806F005FA4C48FC
:1025300006F002FA534806F0FFF9534806F0FCF99A
:102540000A20FFF76FFD514806F0F6F9424806F001
:10255000F3F9424806F0F0F9414806F0EDF9414838
:1025600006F0EAF9404806F0E7F9494806F0E4F9D0
:102570000A20FFF757FD474806F0DEF9464806F007
:10258000DBF9464806F0D8F9454806F0D5F9454844
:1025900006F0D2F90A20FFF745FD434806F0CCF9D2
:1025A000424806F0C9F9424806F0C6F90A20FFF78A
:1025B00039FD404806F0C0F93F4806F0BDF93F48F4
:1025C00006F0BAF90A20FFF72DFD234806F0B4F90A
:1025D000224806F0B1F9224806F0AEF9294806F083
:1025E000ABF9204806F0A8F90A20FFF71BFD1E48AA
:1025F00006F0A2F9324806F09FF900BF80BD00BF87
:102600009CA50000A8A50000E8A500000CA60000FD
:1026100024A6000050A600006CA6000084A60000BE
:102620009CA60000D0A6000010A7000030A7000064
:1026300048A7000068A7000080A70000B0A700001E
:10264000E0A70000F4A7000008A8000020A80000F0
:102650003CA8000058A8000078A8000090A800003E
:10266000A4A80000B4A80000D8A80000F8A80000A2
:1026700018A9000044A9000064A9000074A9000082
:1026800098A90000B4A90000D8A90000F4A900008E
:1026900014AA000034AA000050AA000074AA000086
:1026A0009CAA0000CCAA0000F0AA000018AB000011
:1026B00044AB000074AB0000A0AB0000D0AB000046
:1026C00004AC000080B582B000AF1E4806F034F9BB
:1026D000FB1D19461C4806F011FDFB792F2B0CD968
:1026E000FB79322B09D8FB791946184806F024F9F2
:1026F00000BFFB79312B09D104E00721134806F014
:102700001BF9E5E7124B00221A7013E0FB79302B1E
:1027100003D10F4B02221A700CE0FB79322B03D14C
:102720000B4B01221A7005E0FB79332B02D1084BC9
:1027300003221A70074806F0FFF800BF0837BD46AD
:1027400080BD00BF24AC00007CAC000080AC000069
:102750000800002088AC000080B582B000AF2A4895
:1027600006F0EAF8FB1D1946284806F0C7FCFB797D
:102770002F2B1DD9FB79372B1AD8FB791846FEF77A
:102780002BF900BFFB79303B062B31D801A252F860
:1027900023F000BFB9270000C1270000C9270000AF
:1027A000D1270000D9270000E1270000E927000019
:1027B0000720FEF711F9D5E7154B04221A701BE02C
:1027C000134B00221A7017E0114BFC221A7013E011
:1027D0000F4BF8221A700FE00D4BF4221A700BE029
:1027E0000B4BF0221A7007E0094BEC221A7003E041
:1027F000074BD8221A7000BF064806F09DF800BFAC
:102800000837BD4680BD00BF8CAC00007CAC00002A
:102810001408002088AC000080B584B000AFB64832
:1028200006F08AF8B54B1B78032B1BD801A252F88F
:1028300023F000BF4D280000552800004528000067
:102840005D280000AE4806F077F80BE0AD4806F0D2
:1028500073F807E0AC4806F06FF803E0AB4806F009
:102860006BF800BFAA4B1B78FC2B77DCD82B04DA63
:10287000002B57D0042B51D070E0D83B242B6DD8BF
:1028800001A252F823F000BF552900005D29000085
:102890005D2900005D2900005D2900005D29000020
:1028A0005D2900005D2900005D2900005D29000010
:1028B0005D2900005D2900005D2900005D29000000
:1028C0005D2900005D2900005D2900005D290000F0
:1028D0005D2900005D2900004D2900005D290000F0
:1028E0005D2900005D290000452900005D290000E8
:1028F0005D2900005D2900003D2900005D290000E0
:102900005D2900005D290000352900005D290000D7
:102910005D2900005D2900002D2900007D4806F09A
:102920000BF81CE07C4806F007F818E07B4806F03E
:1029300003F814E07A4805F0FFFF10E0794805F04D
:10294000FBFF0CE0784805F0F7FF08E0774805F05A
:10295000F3FF04E0764805F0EFFF00E000BF754BA1
:102960001B681946744805F0E7FF744B1B6819464D
:10297000734805F0E1FF734B1B681946724805F078
:10298000DBFF724BD3F80035002B01D0704B00E019
:10299000704B1946704805F0CFFF704805F0CCFF2A
:1029A00010216F4805F0C8FF0023FB6015E0FB68AD
:1029B00003F01F03002B05D16A4805F0BDFF0A2074
:1029C000FFF730FB684AFB6813441B7819466748D9
:1029D00005F0B2FFFB680133FB60FB680F2BE6D903
:1029E000604805F0A9FF624805F0A6FF05215C4894
:1029F00005F0A2FF0023BB6016E0BB6803F01F03D5
:102A0000002B05D1574805F097FF0A20FFF70AFB76
:102A1000554ABB68134410331B781946534805F0D8
:102A20008BFFBB680133BB60BB68042BE5D94D4805
:102A300005F082FF4F4805F07FFF0821484805F068
:102A40007BFF00237B6016E07B6803F01F03002BF5
:102A500005D1444805F070FF0A20FFF7E3FA424A27
:102A60007B68134419331B781946404805F064FF0E
:102A70007B6801337B607B68072BE5D9394805F01B
:102A80005BFF3D4805F058FFFD21354805F054FF38
:102A900000233B6016E03B6803F01F03002B05D1C9
:102AA000304805F049FF0A20FFF7BCFA334A3B687B
:102AB000134403331B7819462C4805F03DFF3B684F
:102AC00001333B603B68FC2BE5D9264805F034FF19
:102AD0004FF08043D3F8183403F48033002B01D037
:102AE0001B4B00E01B4B1946254805F025FF00BF96
:102AF0001037BD4680BD00BFCCAC000008000020F0
:102B0000DCAC000000AD000024AD000048AD0000CA
:102B10001408002070AD000090AD0000B0AD0000C2
:102B2000D0AD0000F0AD000010AE000030AE0000EF
:102B300050AE00001808002070AE00000C0000200D
:102B40008CAE000010000020A8AE000000F0004095
:102B5000C8AE0000CCAE0000D0AE0000ECAE00006D
:102B600004AF000088AC00001400002010AF00008B
:102B700018AF000030AF000048AF00002C0A002062
:102B800060AF000080B500AF124B01225A60114BBC
:102B90000122DA600F4B4FF0FF32C3F808230D4BD0
:102BA0004FF48032C3F804230A4B0122C3F80022F9
:102BB000084B1622C3F81025064B0022C3F8402507
:102BC0000920FFF7C1F90920FFF7A4F901231846EE
:102BD00080BD00BF0090004080B400AF054B0122D3
:102BE000DA60044B01221A6000BFBD465DF8047B29
:102BF000704700BF0090004080B400AF034B01223B
:102C00005A6000BFBD465DF8047B704700900040ED
:102C100080B500AF0020FDF763FC4FF08043D3F890
:102C20001C354FF08042DB43C2F81C35024B0022BA
:102C3000C3F8402100BF80BD0090004080B584B043
:102C400000AF78600023FB600EE007F1080319462F
:102C5000094806F053FAB968FB687A681344CAB2A7
:102C60001A70FB680133FB60FB680F2BEDDD00BFC2
:102C700000BF1037BD4680BD7CAF00002DE9F0419C
:102C800096B00EAFF861FB691B789C46FB69013377
:102C90001B789E46FB6902331B789846FB69033319
:102CA0001B781846FB6904331B781C46FB69053307
:102CB0001B781D46FB6906331B781E46FB690733EC
:102CC0001B78BB61FB6908331B787B61FB690933A7
:102CD0001B783B61FB690A331B78FB60FB690B3394
:102CE0001B78BB60FB690C331B787B60FB690D3381
:102CF0001B781946FB690E331B781A46FB690F33A4
:102D00001B780C930B920A917A680992BA68089220
:102D1000FA6807923A6906927A690592BB69049348
:102D2000039602950194009043467246614604481A
:102D300005F002FE00BF2037BD46BDE8F08100BFB0
:102D400080AF000080B487B000AF3B1D00221A6046
:102D50005A609A60DA600023FB751EE00023BB75A1
:102D600015E0FA7DBB7D920018323A441344143BBF
:102D70001978FA7DBB7DC943C9B2920018323A4432
:102D80001344143B0A461A70BB7D0133BB75BB7DEF
:102D9000032BE6D9FB7D0133FB75FB7D032BDDD9CE
:102DA0000023FB751EE00023BB7515E0FA7DBB7D9B
:102DB000920018323A441344143B1978FA7DBB7DD3
:102DC000C943C9B2920018323A441344143B0A462C
:102DD0001A70BB7D0133BB75BB7D032BE6D9FB7D30
:102DE0000133FB75FB7D032BDDD90023FB751EE052
:102DF0000023BB7515E0FA7DBB7D920018323A4482
:102E00001344143B1978FA7DBB7DC943C9B29200C3
:102E100018323A441344143B0A461A70BB7D0133FE
:102E2000BB75BB7D032BE6D9FB7D0133FB75FB7DB9
:102E3000032BDDD90023FB751EE00023BB7515E0D5
:102E4000FA7DBB7D920018323A441344143B197842
:102E5000FA7DBB7DC943C9B2920018323A4413448B
:102E6000143B0A461A70BB7D0133BB75BB7D032B37
:102E7000E6D9FB7D0133FB75FB7D032BDDD90023F8
:102E8000FB751EE00023BB7515E0FA7DBB7D92004B
:102E900018323A441344143B1978FA7DBB7DC94378
:102EA000C9B2920018323A441344143B0A461A70CD
:102EB000BB7D0133BB75BB7D032BE6D9FB7D0133A5
:102EC000FB75FB7D032BDDD900BF00BF1C37BD4662
:102ED0005DF8047B7047000080B592B000AF5848A1
:102EE00005F02AFD002387F847300023BB6207F175
:102EF0002C0300221A605A609A600023BB6107F11C
:102F00001C0300221A605A609A600023BB6007F11C
:102F10000C0300221A605A609A6001237B607FE0F4
:102F200007F13B031946474806F0E8F897F83B30AD
:102F3000653B0D2B73D801A252F823F0A12F00009E
:102F40001F3000001F3000001F3000001F30000045
:102F50001F3000008B2F00001F3000001F300000CA
:102F6000B52F00000B300000752F00001730000057
:102F7000CB2F000007F118031846FFF75FFE07F19B
:102F800018031846FFF77AFE4AE007F128031846AF
:102F9000FFF754FE07F128031846FFF76FFE3FE0E6
:102FA00007F1080207F1280107F11803184605F098
:102FB00071FC35E03B1D1946234806F09FF87B68FD
:102FC0001946224805F0B8FC2AE000233B6414E0CF
:102FD0000023FB6302E0FB6B0133FB63FB6BFE2B07
:102FE000F9D907F1080207F1280107F1180318467B
:102FF00005F050FC3B6C01333B647B683A6C9A42B1
:10300000E6D3134805F098FC0AE007F108031846D8
:10301000FFF734FE04E0012387F8473000E000BFEB
:1030200097F8473083F00103DBB2002B7FF478AFD1
:10303000084805F081FC00BF4837BD4680BD00BF91
:10304000B4AF00007CAC0000D4AF0000D8AF0000EB
:1030500000B0000008B0000080B592B000AF614839
:1030600005F06AFC002387F8473001233B6005F038
:10307000C7F8A8E007F1360319465B4806F03EF8AA
:1030800097F83630653B0D2B00F29A8001A252F87A
:1030900023F000BFF5300000C1310000C131000055
:1030A000C1310000C1310000C1310000E330000037
:1030B000C1310000C131000025310000C1310000E4
:1030C000CD300000B93100003B31000007F124038E
:1030D0001846FFF7B3FD07F124031846FFF7CEFDAE
:1030E00071E03B1D1846FFF7A9FD3B1D1846FFF791
:1030F000C5FD68E0FFF726FE07F1240207F114037F
:103100001146184605F0A0F8034687F8373097F8BF
:10311000373083F00103DBB2002B53D0334805F086
:103120000BFC4FE03B461946314805F0E7FF3B6892
:103130001946304805F000FC45E000233B6433E0CD
:103140000023FB630BE00023BB6302E0BB6B013396
:10315000BB63BB6B062BF9DDFB6B0133FB63FB6BC6
:103160007F2BF0DDFFF7EEFDFFF7ECFDFFF7EAFD4B
:103170003B1D184605F0ACF807F1240207F11403D3
:103180001146184605F060F8034687F8373097F87F
:10319000373083F00103DBB2002B02D0134805F077
:1031A000CBFB3B6C01333B643B683A6C9A42C7D320
:1031B000114805F0C1FB06E0012387F8473002E023
:1031C00000BF00E000BF97F8473083F00103DBB297
:1031D000002B7FF44FAF094805F0AEFB00BF483726
:1031E000BD4680BD24B000007CAC000044B00000AF
:1031F000D4AF0000D8AF000000B0000060B0000005
:1032000080B58CB000AF6A4805F096FB002387F8C4
:103210002F300020FEF716FF664B10225A70012354
:103220003B60B4E007F117031946634805F066FFF9
:10323000FB7D653B112B00F2A98001A252F823F01F
:10324000153300008D3300008D3300008D330000F6
:10325000A53200008D330000973200008D3300004E
:103260008D3300001F3300008D33000089320000D1
:1032700085330000353300008D3300008D330000AE
:103280008D3300007D3300004C48FFF7D7FC4B48DE
:10329000FFF7F4FC7BE04A48FFF7D0FC4848FFF713
:1032A000EDFC74E03B1D1846FFF7C8FC3B1D1846BB
:1032B000FFF7E4FC0023BB620EE0BB6A0B33303344
:1032C0003B4413F82C1C3E4ABB6A134410330A4695
:1032D0001A70BB6A0133BB62BB6A042BEDDDFB7C59
:1032E000DB09DAB2364B1A7600237B620EE07B6A8A
:1032F000033330333B4413F82C1C314A7B6A1344AC
:1033000019330A461A707B6A01337B627B6A072B8A
:10331000EDDD3CE0FFF716FDFEF7ECFE37E03B4647
:103320001946284805F0EAFE3B681946264805F08C
:1033300003FB2CE000233B6218E00023FB610BE061
:103340000023BB6102E0BB690133BB61BB69052B94
:10335000F9DDFB690133FB61FB697F2BF0DDFFF7D2
:10336000F1FCFEF7C7FE3B6A01333B623B683A6AF9
:103370009A42E2D3154805F0DFFA08E01448FFF757
:103380007DFC04E0012387F82F3000E000BF97F8B0
:103390002F3083F00103DBB2002B7FF443AFFEF745
:1033A00089FE0C4805F0C8FA00BF3037BD4680BD25
:1033B0007CB000002C0900207CAC00002F0900200C
:1033C00014000020D4AF0000D8AF000000B000000F
:1033D0002F0A002098B0000080B588B002AFB96015
:1033E0007A603B600346FB73FB7B092B00F287800E
:1033F00001A252F823F000BF213400002F34000056
:103400004F340000653400007B340000913400002C
:10341000A7340000BD340000D3340000E9340000BC
:103420003B6A3A687968B86801F096F86BE0002367
:103430007B6107E03A687968B86801F025FB7B6931
:1034400001337B617B693A6A9A42F3D85BE03B6A5D
:1034500001932F4B009303233A687968B86801F011
:103460007CFE50E03B6A01932A4B009303233A68A9
:103470007968B86801F071FE45E03B6A0193264B1C
:10348000009303233A687968B86801F066FE3AE071
:103490003B6A0193214B009303233A687968B8682B
:1034A00001F05BFE2FE03B6A01931D4B0093032369
:1034B0003A687968B86801F050FE24E03B6A0193ED
:1034C000184B009303233A687968B86801F0B6FF97
:1034D00019E03B6A0193144B009303233A6879681F
:1034E000B86801F0ABFF0EE03B6A01930F4B00930D
:1034F00003233A687968B86801F0A0FF03E00C483C
:1035000005F01AFA00BF00BF1837BD4680BD00BFE6
:1035100011480000A55700009158000017610000F5
:1035200039640000C5660000D1690000E36F000047
:10353000B0B0000090B591B002AF002387F83730EB
:1035400000237B6207F1280300221A605A609A6008
:1035500000237B6107F1180300221A605A609A6009
:1035600000237B6007F1080300221A605A609A600A
:1035700001233B60002387F836307D4805F0DCF9F5
:10358000E7E007F1350319467A4805F0B7FD97F8EB
:103590003530303B422B00F2DB8001A252F823F0A1
:1035A000AD360000AD360000AD360000AD3600008F
:1035B000AD360000AD360000AD360000AD3600007F
:1035C000AD360000AD360000513700005137000025
:1035D00051370000513700005137000051370000CB
:1035E00051370000513700005137000051370000BB
:1035F00051370000513700005137000051370000AB
:10360000513700005137000051370000513700009A
:10361000513700005137000051370000513700008A
:10362000513700005137000051370000513700007A
:10363000513700005137000051370000513700006A
:10364000513700005137000051370000513700005A
:10365000513700005137000051370000513700004A
:10366000513700005137000051370000513700003A
:1036700051370000F136000051370000513700008B
:10368000513700005137000051370000DB36000091
:103690005137000051370000093700003F37000064
:1036A000C5360000493700001F37000097F8353055
:1036B000303B87F8363097F8363019462E4805F0FB
:1036C0003BF946E007F114031846FFF7B7FA07F194
:1036D00014031846FFF7D2FA3BE007F1240318461B
:1036E000FFF7ACFA07F124031846FFF7C7FA30E0FA
:1036F00007F124033A1D07F1140197F8360001245D
:103700000094FFF769FE24E03B4619461B4805F08C
:10371000F5FC3B6819461A4805F00EF919E03B68BC
:1037200007F124043A1D07F1140197F836000093BD
:103730002346FFF751FE134805F0FEF809E03B1D54
:103740001846FFF79BFA04E0012387F8373000E0C2
:1037500000BF97F8373083F00103DBB2002B7FF412
:1037600010AF094805F0E8F800BF3C37BD4690BDF2
:10377000C8B000007CAC0000E4B00000D4AF000092
:10378000D8AF000000B000000CB1000080B48BB0D6
:1037900000AF786007F10C0300221A605A609A604B
:1037A000DA6000233B6246E0002387F8273032E0EE
:1037B000002387F8263025E097F8272097F8263051
:1037C000920028323A4413441C3B187897F827306B
:1037D0009A0097F8263013441A467B6813441978E8
:1037E00097F8272097F826304140C9B29200283236
:1037F0003A4413441C3B0A461A7097F826300133AA
:1038000087F8263097F82630032BD5D997F827303C
:10381000013387F8273097F82730032BC8D90023C6
:10382000FB6102E0FB690133FB61FB69632BF9DD9E
:103830003B6A01333B623B6A062BB5DD00BF00BF2C
:103840002C37BD465DF8047B7047000080B586B01C
:1038500000AF1E4805F070F80023FB7500237B6065
:1038600007F1080300221A605A609A6021E007F10C
:1038700016031946164805F041FCBB7D732B0FD08B
:10388000732B15DC702B02D0712B0ED010E03B1D7A
:103890001846FFF7D3F93B1D1846FFF7EFF908E08C
:1038A0003B1D1846FFF772FF03E00123FB7500E0A4
:1038B00000BFFB7D83F00103DBB2002BD7D10548AD
:1038C00005F03AF800BF1837BD4680BD28B10000AA
:1038D0007CAC000048B1000080B582B000AF7860D9
:1038E0007B681B78002B04D004F02EF87B68002244
:1038F0001A707B685B78002B04D0FEF7DBFB7B68DB
:1039000000225A7000BF0837BD4680BD80B586B022
:1039100000AF786039603B68FB607B68013B7B618E
:103920001CE007233B6113E07B69FA6813441B78B2
:103930001A463B6942FA03F3DBB203F00103FB7260
:10394000FB7A19460A4804F0F7FF3B69013B3B61EB
:103950003B69002BE8DA7B69013B7B617B69002BCB
:10396000DFDA044805F0C2FB00BF1837BD4680BD52
:1039700068B100006CB10000B0B592B002AF002396
:1039800087F83F30002387F83E30002387F8303037
:10399000002387F83130FEF735FDC04B07F11804DE
:1039A0001D460FCD0FC495E8030084E80300BC4B0F
:1039B000BB600123FB60BB4B3B614FF400737B6139
:1039C00007F1080107F118000723B74AFCF740FF89
:1039D000B863BB6B7B637B6B002B02D0786BFCF70F
:1039E000ADFDFCF78FFDB14804F0A6FF0820FEF7FF
:1039F00091FA0920FEF78EFA0F20FEF78BFA62B6D5
:103A000000BF4FF080430022C3F87825A84B002266
:103A1000C3F84025FB1D1946A64805F06FFBFB794E
:103A2000553B252B00F2908101A252F823F000BFF4
:103A3000913C0000493D0000493D0000493D000027
:103A4000493D0000493D0000493D0000493D00005E
:103A5000493D0000493D0000493D0000493D00004E
:103A6000F33A0000313B00006F3B0000773B000061
:103A7000B53B0000C53B0000DD3B0000433D0000BE
:103A8000EB3B0000F93B0000C93A0000073C000096
:103A9000253C0000393C00003F3C00004D3C00004C
:103AA0005B3C0000693C0000773C00007D3C00006E
:103AB0008B3C0000973C0000333C0000153D0000AB
:103AC000233D0000313D00007B4804F035FF7B4979
:103AD0000420FFF71BFF7A4804F02EFF794804F01A
:103AE0002BFF79490420FFF711FF754804F024FFEC
:103AF0002BE1764804F020FF7549764805F0FEFA80
:103B0000734B1B68502B0FDC714B1B68002B0BDBBE
:103B10006F4B1B681946704804F00EFF00BF97F802
:103B20003E3087F83F3010E16C4804F005FFE0E7D5
:103B30006B4804F001FF6B49664805F0DFFA694BFA
:103B40001B68502B0FDC624B1B68002B0BDB654B9B
:103B50001B681946604804F0EFFE00BF97F83E303E
:103B600087F83F30F1E05D4804F0E6FEE0E701232E
:103B700087F83F30E9E05C4804F0DEFE5B495548D9
:103B800005F0BCFA594B1B68002B0FDD574B1B6827
:103B9000632B0BDC554B1B6819464F4804F0CCFED9
:103BA00000BF97F83E3087F83F30CEE0504804F031
:103BB000C3FEE0E703F0C8FEFEF77CFA002387F8B7
:103BC0003E30C2E04B4BD3F80035002B01D0002330
:103BD00000E00223474AC2F80035B6E0464B1B7CA2
:103BE0000133DAB2444B1A74AFE0022387F83F3056
:103BF000424804F0A1FEA8E0032387F83F30404884
:103C000004F09AFEA1E097F83E30002B03D197F81C
:103C10003F30002B03D03B4804F08EFE95E0FEF7CA
:103C200081FA92E0FEF74EFD97F83E3087F83F307C
:103C30008BE0FFF77FFC88E0FFF74EF985E0042377
:103C400087F83F30304804F077FE7EE0FEF784FDD1
:103C500097F83E3087F83F3077E0052387F83F300C
:103C6000264804F069FE70E0082387F83F302748B3
:103C700004F062FE69E0FEF7CFFD66E0062387F8F8
:103C80003F30234804F058FE5FE0FFF7B9FA5CE0EC
:103C9000FFF7E2F959E0FFF7D9FD56E094B30000D1
:103CA0002C0B0020300B0020CD23000070B1000051
:103CB00000E001407CAC00007CB1000040E5014028
:103CC00088AC000094B1000078050040ACB1000061
:103CD000180800207CAF0000E4B10000ECB1000047
:103CE00010B200000C00002044B2000010000020C0
:103CF00078B2000000F00040140000209CB20000E8
:103D0000C4B20000F8B2000018B3000030B30000E5
:103D10003CB30000072387F83F30864804F00CFED0
:103D200013E0092387F83F30834804F005FE0CE0D8
:103D3000FEF762FF002387F83F30804804F0FCFD67
:103D400003E0FEF77DFB00E000BF97F83F30013B4A
:103D5000082B00F2EC8001A252F823F0813D000014
:103D6000AF3D0000E13D0000133E0000413E000079
:103D7000733E0000B53E0000E13E0000113F000030
:103D800007F130031846FFF7A7FD6D4B1B786D4A0E
:103D900011786D4A1268D2B2184603F0E1FD97F827
:103DA0003F3087F83E30002387F83F30C0E007F10E
:103DB00030031846FFF790FD012387F83130604B40
:103DC0001878604B1978604B1A680123FEF742FAA5
:103DD00097F83F3087F83E30002387F83F30A7E060
:103DE00007F130031846FFF777FD012387F83130DC
:103DF000534B1878534B1978534B1A680223FEF72C
:103E000029FA97F83F3087F83E30002387F83F3093
:103E10008EE007F130031846FFF75EFD484B1B7834
:103E2000484A1178484A1268D2B2184603F0BCFDDD
:103E300097F83F3087F83E30002387F83F3077E02F
:103E400007F130031846FFF747FD012387F83130AB
:103E50003B4B18783B4B19783B4B1A680023FEF715
:103E6000F9F997F83F3087F83E30002387F83F3064
:103E70005EE007F130031846FFF72EFD304B18784F
:103E8000304B1978304B1B68DAB2304B1B68DCB210
:103E90002F4B1B68DBB20093234603F0C7FD0123C1
:103EA00087F8303097F83F3087F83E30002387F8A6
:103EB0003F303DE007F130031846FFF70DFD214B81
:103EC0001B78214A1268D2B21146184603F092FDBF
:103ED00097F83F3087F83E30002387F83F3027E0DF
:103EE000184B1878184B1B68D9B2184B1B68DAB2FC
:103EF000174B1B68DBB203F0CFFD012387F830308E
:103F000097F83F3087F83E30002387F83F300FE0C6
:103F1000FEF738FEFEF760FE002387F8303097F892
:103F20003F3087F83E30002387F83F3000E000BF85
:103F300070E500BF48B3000060B300007CB3000030
:103F40001408002008000020180800200C000020A1
:103F50001000002080B485B000AF0346FB71FB79F0
:103F6000FB73FB7B5B00FB734FF4D853BB81FB7986
:103F7000DB09DBB210333B4413F8042CFB7B5340CA
:103F8000FB73FB7B18461437BD465DF8047B704716
:103F900080B483B000AF0346FB71FB79034AD35C66
:103FA00018460C37BD465DF8047B7047380000208A
:103FB00080B487B000AFF860B9607A6000237B619D
:103FC00014E07B69FA68134419787B681A017B69ED
:103FD00013441A46BB6813441A787B69F868034493
:103FE0004A40D2B21A707B6901337B617B690F2B27
:103FF000E7DD00BF00BF1C37BD465DF8047B70479E
:1040000080B485B000AF786039607B681B78FB7343
:104010003B681A787B681A703B68FA7B1A7000BF9D
:104020001437BD465DF8047B704780B487B000AF9D
:10403000F860B9607A603B60FB681B78FB75BB6811
:104040001A78FB681A707B681A78BB681A703B682C
:104050001A787B681A703B68FA7D1A7000BF1C37AB
:10406000BD465DF8047B704780B582B000AF7860D4
:104070007B68581C7B68591D7B6803F109027B68CB
:104080000D33FFF7D2FF7B68D81C7B6803F10F016B
:104090007B6803F10B027B680733FFF7C6FF7B6881
:1040A0009A1C7B680A3319461046FFF7A9FF7B6804
:1040B0009A1D7B680E3319461046FFF7A1FF00BF1B
:1040C0000837BD4680BD90B589B000AF7860002349
:1040D000BB61D8E0BB699B001A467B6813441B7820
:1040E0001846FFF737FF03461C46BB699B000133A8
:1040F0007A6813441B781846FFF72CFF0346634089
:10410000DAB2BB699B00013379680B441B785340DA
:10411000DAB2BB699B00023379680B441B785340C9
:10412000D9B2BB699B0003337A6813441A78BB6920
:104130009B004A40D2B220333B4403F8182CBB69A1
:104140009B001A467B6813441C78BB699B000133B3
:104150007A6813441B781846FFF7FCFE0346634059
:10416000DCB2BB699B0002337A6813441B781846A3
:10417000FFF7F0FE03466340DAB2BB699B000233EF
:1041800079680B441B785340D9B2BB699B00033359
:104190007A6813441A78BB699B0001334A40D2B253
:1041A00020333B4403F8182CBB699B001A467B68FC
:1041B00013441A78BB699B00013379680B441B7860
:1041C0005340DCB2BB699B0002337A6813441B780E
:1041D0001846FFF7BFFE03466340DCB2BB699B0095
:1041E00003337A6813441B781846FFF7B3FE03467F
:1041F0006340D9B2BB699B0003337A6813441A78D1
:10420000BB699B0002334A40D2B220333B4403F8DF
:10421000182CBB699B001A467B6813441B78184610
:10422000FFF798FE03461A46BB699B0019467B6858
:104230000B441B785340DAB2BB699B0001337968A9
:104240000B441B785340DAB2BB699B000233796898
:104250000B441B785340DCB2BB699B0003337A6884
:1042600013441B781846FFF775FE03461A46BB69D0
:104270009B0003336240D2B220333B4403F8182C36
:10428000BB690133BB61BB69032B7FF723AF0023FD
:10429000BB611BE00023FB6112E0BB699A00FB6974
:1042A0001A44BB699900FB690B4419467B680B44AF
:1042B00020323A4412F8182C1A70FB690133FB6162
:1042C000FB69032BE9DDBB690133BB61BB69032BD0
:1042D000E0DD00BF00BF2437BD4690BD80B584B08F
:1042E00000AF78600123FB720023FB600DE0FB68E8
:1042F0007A681344FA7A1A70FB7A1846FFF72AFE96
:104300000346FB72FB680133FB60FB68092BEEDDA3
:1043100000BF00BF1037BD4680BD80B588B000AF7C
:104320007860396007F108031846FFF7D7FF0023CC
:10433000FB610AE0FB697A681A44FB6939680B443F
:1043400012781A70FB690133FB61FB690F2BF1DDF9
:104350001023FB6171E00023BB6110E0FB691A1FB1
:10436000BB6913441A463B681344197807F11402D9
:10437000BB6913440A461A70BB690133BB61BB6950
:10438000032BEBDDFB6903F00F03002B34D1FB693A
:10439000033B3A6813441B781846FFF7F9FD0346C0
:1043A0001A46FB69002B00DA0F331B11013B203347
:1043B0003B4413F8183C5340DBB23B75FB69023BAE
:1043C0003A6813441B781846FFF7E2FD03467B75F5
:1043D000FB69013B3A6813441B781846FFF7D8FD88
:1043E0000346BB75FB69043B3A6813441B781846C7
:1043F000FFF7CEFD0346FB750023BB6117E0FA69AA
:10440000BB691344103B3A681344197807F114024E
:10441000BB6913441A78F869BB69034418463B68C2
:1044200003444A40D2B21A70BB690133BB61BB6915
:10443000032BE4DDFB690433FB61FB69AF2B8ADDF1
:1044400000BF00BF2037BD4680BD90B585B000AF2E
:1044500078600023FB600EE0FB687A6813441978EB
:10446000FB687A68D4180846FFF792FD034623706C
:10447000FB680133FB60FB680F2BEDDD00BF00BF65
:104480001437BD4690BD80B58AB000AFF860B96002
:104490007A6000233B6200237B620CE07B6AFA684F
:1044A0001344197807F110027B6A13440A461A7004
:1044B0007B6A01337B627B6A0F2BEFDD07F1100310
:1044C000002279681846FFF773FD01233B6218E06C
:1044D00007F110031846FFF7B8FF07F1100318465D
:1044E000FFF7C2FD07F110031846FFF7ECFD07F1D7
:1044F00010033A6A79681846FFF75AFD3B6A0133A0
:104500003B623B6A092BE3DD07F110031846FFF716
:104510009CFF07F110031846FFF7A6FD07F11003F3
:104520000A2279681846FFF743FD00237B620BE0FF
:104530007B6ABA68134407F110017A6A0A44127858
:104540001A707B6A01337B627B6A0F2BF0DD00BF40
:1045500000BF2837BD4680BD80B5B2B000AFF8605F
:10456000B9607A603B6007F1140319467868FFF779
:10457000D4FE0023C7F8C4300BE007F114031A4639
:10458000B968F868FFF77FFFD7F8C4300133C7F880
:10459000C430D7F8C4203B689A42EEDB01231846AA
:1045A000C837BD4680BD000080B483B000AF03466D
:1045B000FB71FB79034AD35C18460C37BD465DF8A6
:1045C000047B70473801002080B483B000AF0346FD
:1045D0000A46FB711346BB71FB791B01DAB2BB794A
:1045E00003F00F031343174AD25CFB7903F0F00387
:1045F00043F40071BB7903F00F030B431149CB5C0B
:104600005340DAB2FB791B01DBB243F48073B97912
:104610000909C9B20B430B49CB5C5340DAB2FB79B1
:1046200003F0F00343F44073B9790909C9B20B43AD
:104630000449CB5C5340DBB218460C37BD465DF8ED
:10464000047B70473803002080B584B000AF034678
:10465000FB71FB791846FFF7A7FF0346FB73FA7956
:10466000FB7B11461846FFF7AFFF0346BB73BB7BCE
:104670001846FFF799FF03467B73FA797B7B114657
:104680001846FFF7A1FF03463B733B7B1846FFF735
:104690008BFF0346FB72FA79FB7A11461846FFF747
:1046A00093FF0346BB72BB7A1846FFF77DFF0346B4
:1046B0001846FFF779FF03461846FFF775FF0346D4
:1046C0001846FFF771FF03467B72FA7A7B7A114630
:1046D0001846FFF779FF03463B723B7A024AD35CE8
:1046E00018461037BD4680BD3802002090B585B011
:1046F00000AF786039600023FB600EE0FB687A68E9
:1047000013441978FB687A68D4180846FFF74CFF01
:1047100003462370FB680133FB60FA683B689A42EA
:10472000ECDB00BF00BF1437BD4690BD90B589B02B
:1047300000AFF860B9607A603B600023FB6111E074
:10474000FB69FA6813441878FB69BA68134419784E
:10475000FB697A68D418FFF737FF03462370FB69BB
:104760000133FB61FA693B689A42E9DB0023FB6194
:1047700045E0FB690133BB613AE002F05DFF0346AF
:10478000FB75FB69FA6813441878BB69BA6813446F
:104790001B781946FFF718FF03461A46FB7D534066
:1047A000DCB2BB69FA6813441878FB69BA68134431
:1047B0001B781946FFF708FF03466340BB75FB698A
:1047C0007A6813441978FB697A681344FA7D4A4081
:1047D000D2B21A70BB697A6813441978BB697A68D7
:1047E0001344BA7D4A40D2B21A70BB690133BB612F
:1047F000BA693B689A42C0DBFB690133FB61FA6925
:104800003B689A42B5DB00BF00BF2437BD4690BD70
:104810002DE9F04F97B000AFF862B9626B461E46C3
:10482000B96A4B1E3B650A46002314461D464FF0ED
:1048300000024FF00003EB0043EA5473E2000A4623
:104840000023904699464FF000024FF000034FEAD4
:10485000C90343EA58734FEAC8020B460733DB0823
:10486000DB00ADEB030D6B460033FB64BB6A1A46FD
:10487000F96AF86C04F054FDB96AF86CFFF736FF7A
:10488000B96A4B1EBB640A46002392469B464FF012
:1048900000024FF000034FEACB0343EA5A734FEA9A
:1048A000CA020A4600233A627B624FF000024FF0D0
:1048B0000003D7E908452846C300204643EA507361
:1048C0002046C2000B460733DB08DB00ADEB030DCF
:1048D0006B4600337B64BB6A7A6CF96AF86CFFF74D
:1048E00025FFB96A4B1E3B640A460023BA61FB618F
:1048F0004FF000024FF00003D7E906452846C300F9
:10490000204643EA50732046C2000A4600233A611B
:104910007B614FF000024FF00003D7E904452846C1
:10492000C300204643EA50732046C2000B460733BB
:10493000DB08DB00ADEB030D6B460033FB63BB6AAA
:104940001A46796CF86B04F0EBFCB96AF86BFFF768
:10495000CDFEB96AF86BFFF7C9FEB96A4B1EBB639F
:104960000A460023BA60FB604FF000024FF00003DC
:10497000D7E902452846C300204643EA5073204643
:10498000C2000A4600233A607B604FF000024FF0FD
:104990000003D7E900452846C300204643EA507388
:1049A0002046C2000B460733DB08DB00ADEB030DEE
:1049B0006B4600337B63BB6A7A6BF96B786CFFF7ED
:1049C000B5FEB96A786BFFF791FEB96A786BFFF7AD
:1049D0008DFEB96A786BFFF789FEB96A786BFFF7CD
:1049E00085FEBB6A7A6C796BF86BFFF79FFEBB6A3A
:1049F000FA6AF96C786CFFF799FE00237B650DE08D
:104A00007B6DFA6A13441B7819467B6DFA6A13446E
:104A10000D4A525C1A707B6D01337B657A6DBB6AFF
:104A20009A42EDDBBB6A03F00103002B06D1FB6A5F
:104A30001B7883F06303DAB2FB6A1A70B54600BFD5
:104A40005C37BD46BDE8F08F3802002090B585B0D8
:104A500000AF78600023FB600EE0FB687A681344C7
:104A60001978FB687A68D4180846FFF7EDFD03460D
:104A70002370FB680133FB60FB680F2BEDDD00BF8B
:104A800000BF1437BD4690BD80B5B6B000AFF8602A
:104A9000B9607A600023C7F8D03007F110031946D7
:104AA0007868FFF73AFC0023C7F8D43010E0D7F855
:104AB000D430FA681344197807F1C002D7F8D4301B
:104AC00013440A461A70D7F8D4300133C7F8D430EB
:104AD000D7F8D4300F2BEADD07F1100107F1C0033E
:104AE00000221846FFF764FA0123C7F8D0301CE013
:104AF00007F1C0031846FFF7A9FF07F1C0031846E6
:104B0000FFF7B2FA07F1C0031846FFF7DCFA07F126
:104B1000100107F1C003D7F8D0201846FFF748FA74
:104B2000D7F8D0300133C7F8D030D7F8D030092BC0
:104B3000DEDD07F1C0031846FFF787FC07F1C0036D
:104B40001846FFF791FA07F1100107F1C0030A2296
:104B50001846FFF72DFA0023C7F8D4300FE0D7F836
:104B6000D430BA68134407F1C001D7F8D4200A44FE
:104B700012781A70D7F8D4300133C7F8D430D7F888
:104B8000D4300F2BEBDD00BF00BFD837BD4680BD52
:104B900080B485B000AF786039600023FB609AE094
:104BA0007B6804331A68FB6813441B78FB727B68CC
:104BB00014331A68FB681A447B6804331968FB686D
:104BC0000B4412781A707B6824331A68FB681A4405
:104BD0007B6814331968FB680B4412781A707B6881
:104BE00034331A68FB681A447B6824331968FB68FD
:104BF0000B4412781A707B6834331A68FB681344CC
:104C0000FA7A1A707B6808331A68FB6813441B78B9
:104C1000FB727B6828331A68FB681A447B68083388
:104C20001968FB680B4412781A707B6828331A687D
:104C3000FB681344FA7A1A707B6818331A68FB68A9
:104C400013441B78FB727B6838331A68FB681A447C
:104C50007B6818331968FB680B4412781A707B68FC
:104C600038331A68FB681344FA7A1A707B680C337D
:104C70001A68FB6813441B78FB727B683C331A6824
:104C8000FB681A447B680C331968FB680B44127884
:104C90001A707B682C331A68FB681A447B683C33B3
:104CA0001968FB680B4412781A707B681C331A6809
:104CB000FB681A447B682C331968FB680B44127834
:104CC0001A707B681C331A68FB681344FA7A1A70EE
:104CD000FB680133FB60FA683B689A42FFF660AFFD
:104CE00000BF00BF1437BD465DF8047B704790B528
:104CF00089B000AF786039600023FB612FE10023A9
:104D0000BB610FE1BB691B017A6813441A68FB6938
:104D100013441B781846FFF71DF903461C46BB6970
:104D20001B0104337A6813441A68FB6913441B7827
:104D30001846FFF70FF903466340DAB2BB691B015F
:104D4000043379680B441968FB690B441B785340A2
:104D5000DAB2BB691B01083379680B441968FB6937
:104D60000B441B785340D9B2BB691B010C337A68E2
:104D700013441A68FB6913441A78BB699B004A40C4
:104D8000D2B220333B4403F8182CBB691B017A686C
:104D900013441A68FB6913441C78BB691B01043374
:104DA0007A6813441A68FB6913441B781846FFF7A6
:104DB000D1F803466340DCB2BB691B0108337A6853
:104DC00013441A68FB6913441B781846FFF7C2F8AE
:104DD00003466340DAB2BB691B01083379680B44B0
:104DE0001968FB690B441B785340D9B2BB691B019E
:104DF0000C337A6813441A68FB6913441A78BB6948
:104E00009B0001334A40D2B220333B4403F8182CB4
:104E1000BB691B017A6813441A68FB6913441A784A
:104E2000BB691B01043379680B441968FB690B44A7
:104E30001B785340DCB2BB691B0108337A6813440A
:104E40001A68FB6913441B781846FFF783F803467A
:104E50006340DCB2BB691B010C337A6813441A68E7
:104E6000FB6913441B781846FFF774F80346634048
:104E7000D9B2BB691B010C337A6813441A68FB6909
:104E800013441A78BB699B0002334A40D2B22033E4
:104E90003B4403F8182CBB691B017A6813441A6859
:104EA000FB6913441B781846FFF754F8034619466C
:104EB000BB691B017A6813441A68FB6913441B78A9
:104EC0004B40DAB2BB691B01043379680B441968A3
:104ED000FB690B441B785340DAB2BB691B010833F2
:104EE00079680B441968FB690B441B785340DCB2AA
:104EF000BB691B010C337A6813441A68FB691344BD
:104F00001B781846FFF726F803461A46BB699B0034
:104F100003336240D2B220333B4403F8182CBB6900
:104F20000133BB61BB69032B7FF7ECAE0023BB6190
:104F30000FE0BB699B007A6813441A68FB6913444D
:104F400007F10801BA690A4412781A70BB69013383
:104F5000BB61BB690F2BECDDFB690133FB61FA69B7
:104F60003B689A42FFF6CBAE00BF00BF2437BD4678
:104F700090BD80B487B000AFF860B9607A603B60E4
:104F800000237B6129E000233B611FE07B699B00DC
:104F9000FA6813441A683B69134419787B681A014C
:104FA0007B6913449B00BA6813441A683B69134435
:104FB0001A787B699B00F868034418683B690344CE
:104FC0004A40D2B21A703B6901333B613A693B688F
:104FD0009A42DBDB7B6901337B617B690F2BD2DD7E
:104FE00000BF00BF1C37BD465DF8047B704780B52D
:104FF00086B000AFF860B9607A6000237B610BE097
:105000007B699B00FA6813441A687B68B96810468C
:1050100098477B6901337B617B690F2BF0DD00BF13
:1050200000BF1837BD4680BD90B597B000AFF8609F
:10503000B9607A603B6000233B6500237B6526E016
:105040003B68184604F07AF903461A467B6D9B00CC
:1050500058333B4443F8482C7B6DFA681344187866
:105060007B6D9B0058333B4453F8483C3A681946E3
:1050700002F050FB7B6D9B0058333B4453F8483C97
:105080003968184602F01CFB7B6D01337B657B6D34
:105090000F2BD5DD07F110003B6800227968FFF780
:1050A00068FF01233B651CE007F11003BA6E396805
:1050B0001846FFF79CFF07F1100339681846FFF701
:1050C00067FD07F1100339681846FFF710FE07F176
:1050D00010003B683A6D7968FFF74BFF3B6D013379
:1050E0003B653B6D092BDFDD07F11003BA6E3968B4
:1050F0001846FFF77CFF07F1100339681846FFF7E1
:1051000047FD07F110003B680A227968FFF731FF7D
:1051100000237B6519E07B6D9B0058333B4453F8BB
:10512000480C7B6DBA68D418396802F032FB03462C
:1051300023707B6D9B0058333B4453F8483C184622
:1051400004F004F97B6D01337B657B6D0F2BE2DD91
:1051500000BF00BF5C37BD4690BD90B5ADF5677D23
:1051600002AF07F56474A4F56174206007F56470FC
:10517000A0F56270016007F56471A1F563710A60C2
:1051800007F56472A2F56472136007F5357207F5CE
:105190006473A3F5637311461868FFF7BEF8002324
:1051A000C7F88C333BE007F56473A3F564731B68A1
:1051B000184604F0C3F80346194607F56473A3F5CF
:1051C0005F73D7F88C2343F8221007F53572D7F8B0
:1051D0008C331344187807F56473A3F55F73D7F81D
:1051E0008C2353F8221007F56473A3F564731A68CF
:1051F00002F090FA07F56473A3F55F73D7F88C2378
:1052000053F8222007F56473A3F5647319681046F8
:1052100002F056FAD7F88C330133C7F88C33D7F83D
:105220008C33AF2BBFDD04F02BF9C7F888030023C4
:10523000C7F88C331BE007F56473A3F5647307F1BB
:10524000140407F56472A2F5627107F56472A2F5A1
:105250006170D7F8A02300921B6822460968006895
:10526000FFF7E2FED7F88C330133C7F88C33D7F859
:105270008C23D7F8A4339A42DDDB04F001F9C7F898
:1052800084030023C7F88C330FE007F56473A3F59C
:105290005F73D7F88C2353F82230184604F056F881
:1052A000D7F88C330133C7F88C33D7F88C33AF2B56
:1052B000EBDDD7F88423D7F88833D31A184607F5DF
:1052C0006577BD4690BD80B586B000AFF860B96027
:1052D0007A6000237B6110E07B699B00FA681344CD
:1052E00018687B6901339B00FA68134419687B686E
:1052F000BA6898477B6902337B617B690F2BEBDDD2
:1053000000BF00BF1837BD4680BD90B597B000AF55
:10531000F860B9607A603B6000233B6500237B65E1
:1053200026E03B68184604F009F803461A467B6DF0
:105330009B0058333B4443F8482C7B6DFA68134478
:1053400018787B6D9B0058333B4453F8483C3A68CF
:10535000194602F0DFF97B6D9B0058333B4453F84C
:10536000483C3968184602F0ABF97B6D01337B6528
:105370007B6D0F2BD5DD07F110003B6800227968AB
:10538000FFF7F7FD01233B651CE007F11003BA6E40
:1053900039681846FFF797FF07F110033968184678
:1053A000FFF7F6FB07F1100339681846FFF79FFC7B
:1053B00007F110003B683A6D7968FFF7DAFD3B6D45
:1053C00001333B653B6D092BDFDD07F11003BA6E3E
:1053D00039681846FFF777FF07F110033968184658
:1053E000FFF7D6FB07F110003B680A227968FFF748
:1053F000C0FD00237B6519E07B6D9B0058333B4467
:1054000053F8480C7B6DBA68D418396802F0C1F9BA
:10541000034623707B6D9B0058333B4453F8483C54
:10542000184603F093FF7B6D01337B657B6D0F2B7B
:10543000E2DD00BF00BF5C37BD4690BD90B5ADF565
:10544000657D02AF07F56274A4F55F74206007F50F
:105450006270A0F56070016007F56271A1F561717D
:105460000A6007F56272A2F56272136007F5357281
:1054700007F56273A3F5617311461868FEF74DFFD7
:105480000023C7F884333BE007F56273A3F562732A
:105490001B68184603F052FF0346194607F562736E
:1054A000A3F55D73D7F8842343F8221007F535720E
:1054B000D7F884331344187807F56273A3F55D7346
:1054C000D7F8842353F8221007F56273A3F56273AB
:1054D0001A6802F01FF907F56273A3F55D73D7F838
:1054E000842353F8222007F56273A3F562731968C9
:1054F000104602F0E5F8D7F884330133C7F8843357
:10550000D7F88433AF2BBFDD0023C7F884331BE00B
:1055100007F56273A3F5627307F1140407F562726D
:10552000A2F5607107F56272A2F55F70D7F8982353
:1055300000921B68224609680068FFF7E6FED7F86C
:1055400084330133C7F88433D7F88423D7F89C33E6
:105550009A42DDDB0023C7F884330FE007F562735E
:10556000A3F55D73D7F8842353F82230184603F06F
:10557000EDFED7F884330133C7F88433D7F884338A
:10558000AF2BEBDD0023184607F56377BD4690BDD2
:1055900080B487B000AFB9607A603B600346FB73AC
:1055A00000237B611BE000233B6112E07B691B024F
:1055B0007A68D118FA7B3B6953407A691202B8685D
:1055C0000244C95C3B6913440A461A703B690133C3
:1055D0003B613B69FF2BE9DD7B6901337B617A69C4
:1055E0003B689A42DFDB00BF00BF1C37BD465DF859
:1055F000047B704780B588B000AFF860B9607A600E
:105600000023FB6133E00023BB612AE002F014F8C1
:105610000346FB75FB691B02BA681A44BB69134455
:105620001978FB691B02FA681A44FB7D4B40D9B21A
:10563000BB6913440A461A707B681B02FA681A4455
:10564000BB69134419787B681B02FA681A44FB7D16
:105650004B40D9B2BB6913440A461A70BB69013387
:10566000BB61BB69FF2BD1DDFB690133FB61FA69CB
:105670007B689A42C7DB00BF00BF2037BD4680BDB4
:1056800080B586B000AFB9607A603B600346FB73BB
:1056900000237B610CE07B691B027A68D118FA7BDE
:1056A0007B69B86803448A5C1A707B6901337B614B
:1056B0007A693B689A42EEDB3968B86802F000F814
:1056C00000BF1837BD4680BD2DE9F04389B000AF5B
:1056D000F860B9607A603B606B461E4639684B1EC5
:1056E0007B610A460023904699464FF000024FF036
:1056F00000034FEAC92343EA58534FEAC8220A4637
:10570000002314461D464FF000024FF00003EB0249
:1057100043EA5453E2020B461B020733DB08DB006B
:10572000ADEB030D6B4600333B610023FB612FE0C3
:10573000FB69FA68134418783B687A683969FFF79F
:1057400027FF0023BB6116E03B68581E3B6803F14E
:10575000FF1303F57F431B027A681A443969030279
:105760001944BB690B441978BB6913440A461A7083
:10577000BB690133BB61BB69FF2BE5DD3B68013BC6
:105780001A4639697868FFF735FFFB690133FB6119
:10579000FA69BB689A42CBDBB54600BF2437BD46E9
:1057A000BDE8F0832DE9F04387B000AF7860396041
:1057B0006B461E4639684B1EFB600A460023904626
:1057C00099464FF000024FF000034FEAC92343EA25
:1057D00058534FEAC8220A46002314461D464FF08C
:1057E00000024FF00003EB0243EA5453E2020B467F
:1057F0001B020733DB08DB00ADEB030D6B46003308
:10580000BB6000233B610BE0204A3B6913441978DD
:10581000BA683B6913440A461A703B6901333B611D
:105820003B69FF2BF0DD01237B6113E000233B612B
:105830000AE0BA687B691B021A443B6913440022E0
:105840001A703B6901333B613B69FF2BF1DD7B69DA
:1058500001337B617A693B689A42E7DB3B68591EFA
:105860003B68BA687868FFF72FFF3B68013B7A68AE
:10587000134418783B68BA687968FFF701FFB546AA
:1058800000BF1C37BD46BDE8F08300BF38000020D4
:105890002DE9F04F8BB000AFF860B9606B461E4643
:1058A000B9684B1EFB610A4600233A607B604FF0EB
:1058B00000024FF000037868C302386843EA50538F
:1058C0003868C2020A46002392469B464FF0000207
:1058D0004FF000034FEACB2343EA5A534FEACA2260
:1058E0000B461B020733DB08DB00ADEB030D6B46F9
:1058F0000033BB61B9684B1E7B610A4600239046AA
:1059000099464FF000024FF000034FEAC92343EAE3
:1059100058534FEAC8220A46002314461D464FF04A
:1059200000024FF00003EB0243EA5453E2020B463D
:105930001B020733DB08DB00ADEB030D6B460033C6
:105940003B6100233B620BE0264A3B6A1344197813
:10595000BA693B6A13440A461A703B6A01333B62D8
:105960003B6AFF2BF0DD00237B6225E07B6AFA684F
:10597000134418787B6A0133BA693969FFF708FE66
:1059800000233B620BE07B6A0133BA691B021A44B5
:105990003B6A134400221A703B6A01333B623B6A44
:1059A000FF2BF0DD7B6A01331A463969B869FFF7CE
:1059B00021FE7B6A01337B62BB68013B7A6A9A42B3
:1059C000D4DBBB68013BFA6813441878BB68BA693A
:1059D000F968FFF755FEB54600BF2C37BD46BDE858
:1059E000F08F00BF3800002080B584B000AF786031
:1059F00039600123FB6017E001F01EFEB8607B6890
:105A00001A68BB685A407B681A60FB689B007A681A
:105A100013441968FB689B007A681344BA684A40CB
:105A20001A60FB680133FB60FA683B689A42E3DB6B
:105A300000BF00BF1037BD4680BD000080B487B0F6
:105A400000AF78600423BB6000237B6122E0002369
:105A50003B61BB68013BFB6011E03B691B023B61A2
:105A60007B69BA6803FB02F2FB681344114AD35CFA
:105A70001A463B6953403B61FB68013BFB60FB6896
:105A8000002BEADA7B687A69396943F822107B696E
:105A900001337B614FF48072BB6892FBF3F37A6948
:105AA0009A42D4DB00BF00BF1C37BD465DF8047BC3
:105AB000704700BF3800002080B487B000AFB960E5
:105AC0007A603B600346FB7300237B611BE000238D
:105AD0003B6112E07B691B027A681A44F97B3B69DF
